:020000040800F2
:10000000080B002045010008491A00080D020008ED
:10001000451A0008951000081D280008000000007F
:100020000000000000000000000000007D1E00082D
:10003000991000080000000097010008691F0008DF
:100040005F0100085F0100085F0100085F01000810
:100050005F0100085F0100085F0100089D100008B3
:100060005F0100085F0100085F0100085F010008F0
:100070005F0100085F0100085F0100085F010008E0
:100080005F0100085F0100085F0100085F010008D0
:100090005F0100085F0100085F0100085F010008C0
:1000A0005F0100085F0100085F0100085F010008B0
:1000B0005F0100085F0100085F0100085F010008A0
:1000C0005F0100085F0100085F0100085F01000890
:1000D0005F010008D91F00083520000891200008A2
:1000E0005F0100085F0100085F0100085F01000870
:1000F0005F0100085F0100085F0100085F01000860
:100100005F0100085F0100085F0100085F0100084F
:100110005F0100085F0100085F0100085F0100083F
:100120005F0100085F0100085F0100085F0100082F
:10013000DFF80CD000F0B6F8004800472D6000084A
:10014000080B00200648804706480047FEE7FEE708
:10015000FEE7FEE7FEE7FEE7FEE7FEE7FEE7FEE777
:10016000791F000831010008EFF3108072B6704764
:1001700080F310887047314A1368012B04D04FF088
:10018000010313602E4A10602E4A11602E484FF072
:10019000805101607047EFF3108272B62748016802
:1001A00091B14FF0000101602548016829B1EFF3DA
:1001B000098121E9F00F0068016022490968096896
:1001C000B1E8F00F81F3098882F310884EF0040E35
:1001D00070471C4908601A494FF000000860174931
:1001E0004FF00100086019484FF47F01D0F800205B
:1001F00041EA0201016014484FF080510160144847
:100200000068006880F3088862B670471EF0040F2B
:1002100014BFEFF30880EFF3098020E9F00F40F8F6
:1002200004ED14BF80F3088880F3098800B506F058
:1002300017FE5DF804EB4EF0040E704780010020BD
:10024000780100207C01002004ED00E020ED00E0BA
:1002500008ED00E040EA01039B0703D009E008C96C
:10026000121F08C0042AFAD203E011F8013B00F87B
:10027000013B521EF9D27047421C10F8011B0029A5
:10028000FBD1801A704730B505460020034600E0D8
:100290005B1C934205D2EC5CC85C201A01D1002C97
:1002A000F6D130BD064C074D06E0E06840F0010392
:1002B00094E8070098471034AC42F6D3FFF73CFFB0
:1002C000E05001080051010870B58C1810F8015B6E
:1002D00015F0070301D110F8013B2A1106D110F8DF
:1002E000012B03E010F8016B01F8016B5B1EF9D1E3
:1002F0002B0705D40023521E0DD401F8013BFAE769
:1003000010F8013BCB1A921C03E013F8015B01F8D3
:10031000015B521EF9D5A142D8D3002070BD30B583
:10032000014601F01F04C1F34513CA0AE50205EBBB
:1003300043151544A8B230BD2DE9FC4F03469E6914
:10034000DC6901941A681C69671058695C6A64105A
:100350000094B7E082EA000404F00204002C60D0AC
:10036000344600F0020CBCF1000F14D0B0F800C00D
:10037000B2F8008008EA01090CEA010ACA4408EA56
:100380000C0929EA010909EB6A09A0F80090801C10
:10039000921C641E00BF921C52F8045C21E0D2F84B
:1003A00000C0D0F800804FEA154A0AEB0C496546B8
:1003B00041EA014A0AEA090A4FEA5A0B41EA014AAC
:1003C0000AEA080A0BEB5A0B09EA080A41EA014E4D
:1003D0002AEA0E0ADA44C0F800A0001D121DA41E6D
:1003E00000BF012CDBDC9CB1B0F800C04FEA15481F
:1003F00008EA01090CEA010ACA4408EA0C0929EAD8
:10040000010909EB6A09A0F80090921C801C00BF4A
:10041000A7F1010C02EB4C02DDF800C000EB4C0030
:1004200050E0344602F002059DB10588B2F800C0E4
:100430000CEA010805EA0109C1440CEA050828EAAA
:10044000010808EB6908A0F80080921C801C641E5B
:1004500000BF1BE01568D0F800C041EA014808EA77
:1004600005084FEA580941EA014808EA0C0809EB77
:10047000580905EA0C0841EA014A28EA0A08C84472
:10048000C0F80080121D001DA41E00BF012CE1DC7D
:1004900094B10588B2F800C00CEA010805EA010928
:1004A000C1440CEA050828EA010808EB6908A0F82D
:1004B0000080921C801C00BF02EB4702009D00EBF5
:1004C000450000BF019C651E0195002C7FF442AFE2
:1004D000BDE8FC8F2DE9F05F044694F82D50802D87
:1004E00006D14FF2DE712046FFF726FFBDE8F09FF0
:1004F000FF2D18D1A0694600D4F81C902768D4F8C5
:1005000014800AE032463946404607F0D7FC606A5C
:10051000304480442069304407445FEA0900A9F16F
:100520000109EFD1E2E7ED0805B9DFE7A26902EBC7
:10053000D2735E10E7692168606901E1F21CD3178C
:1005400002EB93734FEAA30C06F0030232B1012AC7
:100550007DD0022A63D0032A7AD130E000BF51F85F
:10056000048B02684FEA084A4AEA18494FEA024AED
:100570004AEA1243DFF8D8A108EA0A0802EA0A02A6
:1005800009EA0A0903EA0A03A9EB030A0AFB05FAC6
:1005900003EB5A1ADFF8B8B10AEA0B03A8EB020A18
:1005A0000AFB05FA02EB5A1A0AEA0B024FEA034A5F
:1005B0004AEA134A4AEA020A40F804AB00BF51F87B
:1005C000048B02684FEA084A4AEA18494FEA024A8D
:1005D0004AEA1243DFF878A108EA0A0802EA0A02A6
:1005E00009EA0A0903EA0A03A9EB030A0AFB05FA66
:1005F00003EB5A1ADFF858B10AEA0B03A8EB020A18
:100600000AFB05FA02EB5A1A0AEA0B024FEA034AFE
:100610004AEA134A4AEA020A40F804AB00BF51F81A
:10062000048B02684FEA084A4AEA18494FEA024A2C
:100630004AEA1243DFF818A108EA0A0802EA0A02A5
:1006400009EA0A0903EA0A03A9EB030A01E019E02F
:100650004EE00AFB05FA03EB5A1ADFF8F4B00AEA97
:100660000B03A8EB020A0AFB05FA02EB5A1A0AEA84
:100670000B024FEA034A4AEA134A4AEA020A40F8DE
:1006800004AB00BF51F8048B02684FEA084A4AEAFB
:1006900018494FEA024A4AEA1243DFF8B4A008EACE
:1006A0000A0802EA0A0209EA0A0903EA0A03A9EBAC
:1006B000030A0AFB05FA03EB5A1ADFF894B00AEAB8
:1006C0000B03A8EB020A0AFB05FA02EB5A1A0AEA24
:1006D0000B024FEA034A4AEA134A4AEA020A40F87E
:1006E00004ABACF10102B2F1000C3FF738AF00BF30
:1006F00000BFA26902EBD2735B10A2EB4303DBB134
:100700000B88028843EA034CDFF844800CEA0803B4
:1007100042EA024C0CEA0802A3EB020C0CFB05FCBB
:1007200002EB5C12C44602EA0C0242EA124CA0F848
:1007300000C0891C801C00BF22691144626A1044F9
:100740003A00A7F101077FF4F9AE00BFCEE6000042
:100750001FF8E0072DE9FC4F67E0D0F800A04469DE
:10076000D0F818B0CDF800B047E0DAF80020110E4C
:10077000C2F30745C2F30726D7B223684FEA136BCB
:10078000CDF804B0C3F3074CC3F3072803F0FF0907
:10079000C1F1FF0B0BFB0CFB4FF0FF0EBBFBFEFB95
:1007A0000BEB050CC1F1FF0B0BFB08FBBBFBFEFBCE
:1007B0000BEB0608C1F1FF0B0BFB09FBBBFBFEFBC0
:1007C0000BEB0709C1F1FF0BDDF804E00BFB0EFB9F
:1007D0004FF0FF0EBBFBFEFB8B44CDF804B0DDF801
:1007E00004B04FEA0B6B4BEA0C4B4BEA082B4BEA7D
:1007F000090323600AF1040A241DDDF800B0ABF1FF
:10080000010ECDF800E0BBF1000FAED1D0F80CE046
:10081000D0F800B0F344C0F800B0D0F820E0D0F831
:1008200014B0F344C0F814B000BFD0F81CA0AAF173
:100830000104C461BAF1000F8FD1BDE8FC8F000044
:100840002DE9F04F03469D69DE6919681A69971012
:1008500058695A6A4FEA620C0AE1EA1CD41702EBA3
:1008600094744FEAA40805F0030232B1012A7DD046
:10087000022A79D0032A7AD13BE000BF0A684FEA06
:10088000D269B9F1000F31D0B9F11F0F0DD14FF47A
:10089000784404EA12244FF4FC6A0AEA521A5444D7
:1008A000C2F3C40A5444048020E004884FF4784A18
:1008B0000AEA122A02F47C4B0AEBCB2AC2F3C40BDD
:1008C0000AEB0B0244EA044ADFF8B4B10AEA0B046B
:1008D000A2EB040A0AFB09FA04EB5A14DA4604EA0A
:1008E0000A0444EA144AA0F800A000BF091D801CB5
:1008F00000BF0A684FEAD269B9F1000F31D0B9F1EF
:100900001F0F0DD14FF4784404EA12244FF4FC6A0F
:100910000AEA521A5444C2F3C40A5444048020E040
:1009200004884FF4784A0AEA122A02F47C4B0AEB54
:10093000CB2AC2F3C40B0AEB0B0244EA044ADFF8E9
:1009400040B10AEA0B04A2EB040A0AFB09FA04EB21
:100950005A14DA4604EA0A0444EA144AA0F800A049
:1009600000BF091D801C00BF0A6801E03AE07AE080
:100970004FEAD269B9F1000F31D0B9F11F0F0DD193
:100980004FF4784404EA12244FF4FC6A0AEA521A3B
:100990005444C2F3C40A5444048020E004884FF451
:1009A000784A0AEA122A02F47C4B0AEBCB2AC2F3F9
:1009B000C40B0AEB0B0244EA044ADFF8C4B00AEAAB
:1009C0000B04A2EB040A0AFB09FA04EB5A14DA46F8
:1009D00004EA0A0444EA144AA0F800A000BF091D72
:1009E000801C00BF0A684FEAD269B9F1000F31D00C
:1009F000B9F11F0F0DD14FF4784404EA12244FF4DB
:100A0000FC6A0AEA521A5444C2F3C40A54440480E9
:100A100020E004884FF4784A0AEA122A02F47C4B58
:100A20000AEBCB2AC2F3C40B0AEB0B0244EA044ADA
:100A3000DFF84CB00AEA0B04A2EB040A0AFB09FA3D
:100A400004EB5A14DA4604EA0A0444EA144AA0F809
:100A500000A000BF091D801CA8F10102B2F100082E
:100A60003FF70CAF00BF00BF01EB870100EB4C006C
:100A70003200A6F101067FF4F0AEBDE8F08F000071
:100A80001FF8E0072DE9F04703469C69DF69186805
:100A9000D3F810C05A695D6A4FEAE57805EB98789B
:100AA0004FEAA80694E0E51D4FEAE57905EB597990
:100AB0004FEAE90804F00705082D7DD2DFE805F0CC
:100AC000046E5F504132231400BF05786D0051F869
:100AD000259045784FF0010A0AEB450551F825505D
:100AE0004D4420C2801C00BF05786D0051F8259050
:100AF00045784FF0010A0AEB450551F825504D4461
:100B000020C2801C00BF05786D0051F82590457803
:100B10004FF0010A0AEB450551F825504D4420C21B
:100B2000801C00BF05786D0051F8259045784FF086
:100B3000010A0AEB450551F825504D4420C2801C9E
:100B400000BF05786D0051F8259045784FF0010AF7
:100B50000AEB450551F825504D4420C2801C00BFCA
:100B600005786D0051F8259045784FF0010A0AEBA1
:100B7000450551F825504D4420C2801C00BF057822
:100B80006D0051F8259045784FF0010A0AEB4505B4
:100B900051F825504D4420C2801C00BF05786D00DF
:100BA00051F8259045784FF0010A0AEB450551F8B8
:100BB00025504D4420C200E006E0801CA8F101054C
:100BC000B5F1000881DC00BF00BF604402EB860283
:100BD0003D00A7F101077FF466AFBDE8F087000094
:100BE00010B5044602492046FFF74CFF10BD000037
:100BF000803401082DE9F84F02469569D6691168DD
:100C000013694FEAA30E5069536A9B100093DFE00B
:100C1000EB1CDC1703EB9474A71005F0030333B14E
:100C2000012B74D0022B65D0032B71D131E000BFB2
:100C30000C684FEA1468B8F1FF0F06D1D0F800B085
:100C400064F3170BC0F800B020E0036803F07F499D
:100C500004F0FF1A03F0FF1CAAEB0C0B0BFB08FBC4
:100C60000CEB1B2B0BF0FF1C04F47F4403F47F43BD
:100C7000A4EB030B0BFB08FB03EB1B2B0BF47F43D9
:100C80004CEA030B4BEA090BC0F800B0091D001D2C
:100C900000BF0C684FEA1468B8F1FF0F06D1D0F816
:100CA00000B064F3170BC0F800B020E0036803F055
:100CB0007F4904F0FF1A03F0FF1CAAEB0C0B0BFB9F
:100CC00008FB0CEB1B2B0BF0FF1C04F47F4403F41C
:100CD0007F43A4EB030B0BFB08FB03EB1B2B0BF479
:100CE0007F434CEA030B4BEA090BC0F800B0091D27
:100CF000001D00BF0C684FEA1468B8F1FF0F08D15F
:100D0000D0F800B064F3170BC0F800B022E024E084
:100D100058E0036803F07F4904F0FF1A03F0FF1C5A
:100D2000AAEB0C0B0BFB08FB0CEB1B2B0BF0FF1CBB
:100D300004F47F4403F47F43A4EB030B0BFB08FB99
:100D400003EB1B2B0BF47F434CEA030B4BEA090B21
:100D5000C0F800B0091D001D00BF0C684FEA146800
:100D6000B8F1FF0F06D1D0F800B064F3170BC0F84C
:100D700000B020E0036803F07F4904F0FF1A03F09D
:100D8000FF1CAAEB0C0B0BFB08FB0CEB1B2B0BF05B
:100D9000FF1C04F47F4403F47F43A4EB030B0BFB21
:100DA00008FB03EB1B2B0BF47F434CEA030B4BEAD2
:100DB000090BC0F800B0091D001D7B1E1F1E3FF768
:100DC00037AF00BF00BF01EB8E01009B00EB83003B
:100DD0003300A6F101067FF41BAFBDE8F88F2DE9C3
:100DE000F05F054695F82D40802C03D1284600F091
:100DF000BFF8BAE0AE69EF6929682A694FEAA20C28
:100E000068696A6A4FEAA208A9E0F21CD31702EBEC
:100E100093734FEAA30906F0030232B1012A6ED0A0
:100E2000022A49D0032A7DD123E000BF0B68026863
:100E300003F0FF1B02F0FF1AABEB0A0E0EFB04FEE1
:100E40000AEB1E2E0EF0FF1A03F47F4302F47F42DA
:100E5000A3EB020E0EFB04FE02EB1E2E0EF47F42ED
:100E60004AEA020E4EF07F4EC0F800E0091D001D58
:100E700000BF0B68026803F0FF1B02F0FF1AABEB28
:100E80000A0E0EFB04FE0AEB1E2E0EF0FF1A03F4F0
:100E90007F4302F47F42A3EB020E0EFB04FE02EB43
:100EA0001E2E0EF47F424AEA020E4EF07F4EC0F82C
:100EB00000E0091D001D00BF0B68026803F0FF1B66
:100EC00002F0FF1AABEB0A0E0EFB04FE0AEB1E2E1D
:100ED0000EF0FF1A03F47F4302F47F42A3EB020EED
:100EE0000EFB04FE02EB1E2E0EF47F424AEA020EB7
:100EF0004EF07F4EC0F800E0091D001D00BF0B68DA
:100F0000026803F0FF1B02F0FF1AABEB0A0E0EFBA8
:100F100004FE0AEB1E2E0EF0FF1A03F47F4302F4C8
:100F20007F4200E016E0A3EB020E0EFB04FE02EB94
:100F30001E2E0EF47F424AEA020E4EF07F4EC0F89B
:100F400000E0091D001DA9F10102B2F100093FF7FF
:100F50006DAF00BF00BF01EB8C0100EB88003A00D1
:100F6000A7F101077FF451AF00BFBDE8F09F00007B
:100F70002DE9F04F02469369D66911681469A710EC
:100F80005069546A4FEAA40C7AE0DC1CE51704EBC4
:100F900095754FEAA50803F0030434B1012C4DD038
:100FA000022C33D0032C66D118E000BF10C90568AD
:100FB000DFF8D89004EA0909DFF8D0A005EA0A0AA8
:100FC000CA4404EA0509DFF8C8B009EA0B0909EBCD
:100FD0005A0949F07F4940F8049B00BF10C90568D1
:100FE000DFF8A89004EA0909DFF8A0A005EA0A0AD8
:100FF000CA4404EA0509DFF898B009EA0B0909EBCD
:101000005A0949F07F4940F8049B00BF10C90568A0
:10101000DFF8789004EA0909DFF870A005EA0A0A07
:10102000CA4404EA0509DFF868B009EA0B0909EBCC
:101030005A0949F07F4940F8049B00BF10C9056870
:10104000DFF8489004EA0909DFF840A005EA0A0A37
:10105000CA4404EA0509DFF838B009EA0B0909EBCC
:101060005A0949F07F4940F8049BA8F10104B4F102
:1010700000089BDC00BF00BF01EB870100EB8C0088
:101080003400A6F1010680D1BDE8F08FFEFEFE001F
:101090000101010000BFFEE77047000010B500200D
:1010A00000F03AF804490968086C08F025FF0220AE
:1010B00000F004F810BD00003800002010B5044610
:1010C000200D000508B904B103E0FC2102A004F0E2
:1010D00043F91048046010BD4C6962726172696521
:1010E000735C53544D3332463130785F53746450DF
:1010F00065726970685F4472697665725C73726369
:101100005C73746D3332663130785F657874692E44
:1011100063000000140401401CB504460220009046
:1011200000208DF804000C208DF805001CB1012072
:101130008DF8060002E000208DF80600684600F0F9
:1011400005F80220FFF7BAFF1CBD000070B5044689
:101150000025207910B12079042800D103E06A210C
:1011600035A004F0F9F86079082805D060790C28DA
:1011700002D06079102800D103E06B212EA004F08A
:10118000EBF820686FF3130010B9206800B103E09A
:101190006C2129A004F0E0F8A07910B1A079012811
:1011A00000D103E06D2124A004F0D6F8314DA079E0
:1011B00090B3284600682168884329460860081DC6
:1011C000006821688843291D086020790544286843
:1011D0002168084328602748083000682168884350
:1011E000244908310860081D0068216888432149A6
:1011F0000C310860607910280FD1081F0068216841
:1012000008431C4908310860081D0068216808432C
:1012100018490C3108600EE007E0164D607905446E
:10122000286821680843286005E02079054428687B
:1012300021688843286070BD4C696272617269657B
:10124000735C53544D3332463130785F537464507D
:1012500065726970685F4472697665725C73726307
:101260005C73746D3332663130785F657874692EE3
:10127000630000000004014070B504460D462CB127
:10128000022C03D0042C01D0062C00D104E040F243
:10129000DD1111A004F060F80DB1012D00D104E0C2
:1012A0004FF4EF710CA004F057F855B1A000A0F175
:1012B000C040006840F00101A000A0F1C040016002
:1012C00009E0A000A0F1C040006812490840A10058
:1012D000A1F1C041086070BD4C69627261726965BC
:1012E000735C53544D3332463130785F53746450DD
:1012F00065726970685F4472697665725C73726367
:101300005C73746D3332663130785F66736D632E53
:1013100063000000FEFF0F0010B50446206840B1D6
:101320002068022805D02068042802D020680628FA
:1013300000D103E0B321C8A004F00EF8606810B13A
:101340006068022800D103E0B421C3A004F004F8CF
:10135000A06828B1A068042802D0A068082800D19D
:1013600003E0B521BCA003F0F7FFE06810B1E0682E
:10137000102800D103E0B621B7A003F0EDFF2069EB
:1013800018B12069B0F5807F00D103E0B721B2A089
:1013900003F0E2FF606918B16069B0F5004F00D159
:1013A00003E0B821ACA003F0D7FFA06918B1A06991
:1013B000B0F5007F00D103E0B921A7A003F0CCFF76
:1013C000E06918B1E069B0F5806F00D103E0BA219F
:1013D000A1A003F0C1FF206A18B1206AB0F5006F28
:1013E00000D103E0BB219CA003F0B6FF606A18B1F6
:1013F000606AB0F5805F00D103E0BC2196A003F0E5
:10140000ABFFA06A18B1A06AB0F5005F00D103E09D
:10141000BD2191A003F0A0FFE06A18B1E06AB0F529
:10142000804F00D103E0BE218BA003F095FF206B1D
:1014300018B1206BB0F5002F00D103E0BF2186A0CA
:1014400003F08AFF606B00680F2800D803E0C0211A
:1014500081A003F081FF606B40680F2800D803E093
:10146000C1217DA003F078FF606B806820B1606BC4
:101470008068FF2800D803E0C22177A003F06CFF4A
:10148000606BC0680F2800D803E0C32172A003F08E
:1014900063FF606B00690F2800D803E0C4216EA0D1
:1014A00003F05AFF606B40690F2800D803E0C521A4
:1014B00069A003F051FF606B806970B1606B806957
:1014C000B0F1805F09D0606B8069B0F1005F04D03B
:1014D000606B8069B0F1405F00D103E0C6215EA07F
:1014E00003F03AFFD4E901010843E16808432169A8
:1014F000084361690843A1690843E1690843216A17
:101500000843616A0843A16A0843E16A0843216B02
:10151000084321688900A1F1C0410860A06808283B
:101520000BD120688000A0F1C040006840F040016D
:1015300020688000A0F1C0400160606B0068616BB2
:10154000496840EA0110616B896840EA0120616BDB
:10155000898940EA0140616B098A40EA0150616B68
:10156000097D40EA0160616B896908432168491C73
:101570008900A1F1C0410860E06AB0F5804F62D1F6
:10158000A06B00680F2800D803E0EA2132A003F026
:10159000E3FEA06B40680F2800D803E0EB212EA0EB
:1015A00003F0DAFEA06B806820B1A06B8068FF2892
:1015B00000D803E0EC2128A003F0CEFEA06B006968
:1015C0000F2800D803E0ED2123A003F0C5FEA06B97
:1015D00040690F2800D803E0EE211FA003F0BCFEF5
:1015E000A06B806970B1A06B8069B0F1805F09D099
:1015F000A06B8069B0F1005F04D0A06B8069B0F18E
:10160000405F00D103E0EF2113A003F0A5FEA06B23
:101610000068A16B496840EA0110A16B896840EA43
:101620000120A16B098A40EA0150A16B097D40EAC3
:101630000160A16B8969084321688900A1F1C0415B
:10164000C1F8040107E06FF0704120688000A0F14C
:10165000C040C0F8041110BD4C69627261726965C6
:10166000735C53544D3332463130785F5374645059
:1016700065726970685F4472697665725C737263E3
:101680005C73746D3332663130785F66736D632ED0
:10169000630000000021016002214160002181609F
:1016A000C160016141618161C16101624FF480519A
:1016B0004162490081620021C16201630F21426BD6
:1016C0001160426B5160FF21426B91600F21426BB0
:1016D000D160426B1161426B51610021426B91619B
:1016E0000F21826B1160826B5160FF21826B9160D0
:1016F0000F21826BD160826B1161826B516100217D
:10170000826B91617047000008B502208DF80200DD
:1017100004208DF803000002ADF8000069461C4863
:1017200000F03AF818208DF803004FF40070ADF87F
:1017300000006946164800F02FF804208DF80300D9
:101740000820ADF800006946114800F025F818207F
:101750008DF803000420ADF8000069460C4800F045
:101760001BF804208DF803004002ADF80000694624
:10177000084800F011F818208DF803004FF480603D
:10178000ADF800006946034800F006F808BD000007
:1017900000080140000C01402DE9F05F05460C46B1
:1017A0004FF00009CA4600260027B046B346594804
:1017B000854211D0584885420ED0584885420BD0FA
:1017C0005748854208D05748854205D0564885423B
:1017D00002D05648854200D103E0B22154A003F064
:1017E000BBFDE078A0B1E078042811D0E07828288B
:1017F0000ED0E07848280BD0E078142808D0E078A4
:10180000102805D0E0781C2802D0E078182800D1F4
:1018100003E0B32146A003F09FFD002010B920880B
:1018200000B103E0B42142A003F096FDE07800F09F
:101830000F09E07800F0100080B1A078012805D0F1
:10184000A078022802D0A078032800D103E0BB21B1
:1018500037A003F081FDA07840EA0909207838B369
:10186000D5F8008000261FE0012000FA06F7208846
:1018700000EA070ABA4516D1B7000F2000FA07FBA5
:1018800028EA0B0809FA07F040EA0808E078282857
:1018900003D10120B040686105E0E078482802D11A
:1018A0000120B0402861761C082EDDD3C5F80080E9
:1018B0002088FF282BDDD5F80480002623E006F1E0
:1018C0000800012101FA00F7208800EA070ABA455A
:1018D00018D1B7000F2000FA07FB28EA0B0809FA15
:1018E00007F040EA0808E078282803D106F108004C
:1018F00081406961E078482804D106F1080001219F
:1019000081402961761C082ED9D3C5F80480BDE832
:10191000F09F000000080140000C01400010014051
:101920000014014000180140001C0140002001404B
:101930004C69627261726965735C53544D3332460F
:101940003130785F5374645065726970685F4472B7
:10195000697665725C7372635C73746D3332663181
:1019600030785F6770696F2E6300000000B59FB02C
:10197000012140F2E11000F0B7F90121080200F066
:1019800027F94CF23370ADF8040003208DF80600FF
:1019900018208DF8070001A92648FFF7FDFE4FF635
:1019A0008070ADF8040001A92348FFF7F5FE01207F
:1019B000ADF8040001A92148FFF7EEFE4FF4805076
:1019C000ADF8040001A91E48FFF7E6FE09A81D9026
:1019D00002A81E9010A8FFF75DFE012009900F20BD
:1019E0000B9000200F900220029005200490002010
:1019F0000890062010900020119012901020139053
:101A00000020149015901690179018904FF4805065
:101A1000199000201A904FF480401B9000201C90D9
:101A200010A8FFF779FC01210620FFF725FC1FB065
:101A300000BD00000014014000180140001C0140DE
:101A40000020014000BFFEE7704710B500214FF0B5
:101A5000006000F081F810BD38B5044620798DF89B
:101A6000000000208DF801008DF8020001208DF8A3
:101A70000300684600F002F838BD00002DE9F0418F
:101A80000446002500270F26E07810B1E0780128F1
:101A900000D103E0752121A003F05EFC60781028DE
:101AA00000DA03E076211DA003F056FCA078102890
:101AB00000DA03E0772119A003F04EFCE07800B3D0
:101AC0002248006800F4E060C0F5E060050AC5F156
:101AD0000407EE40607800FA07F5A078304005432F
:101AE0002D011B4822788554207800F01F01012029
:101AF000884021784911890001F1E021C1F80001F5
:101B000009E0207800F01F01012088401149227867
:101B1000521141F82200BDE8F08100004C69627268
:101B200061726965735C53544D3332463130785F6E
:101B30005374645065726970685F44726976657247
:101B40005C7372635C6D6973632E63000CED00E07F
:101B500000E400E080E100E070B504460D46B4F119
:101B6000005F02D0B4F1006F00D103E09F2109A013
:101B700003F0F2FB1348854200D203E0A02105A048
:101B800003F0EAFB104905EA010020430F49086011
:101B900070BD00004C69627261726965735C535478
:101BA0004D3332463130785F5374645065726970DA
:101BB000685F4472697665725C7372635C6D6973A9
:101BC000632E6300FFFF0F0080FFFF1F08ED00E0A2
:101BD00070B504460D4640F2575024EA000008B99B
:101BE00004B104E040F22B410CA003F0B5FB0DB1B1
:101BF000012D00D104E040F22C4108A003F0ACFB21
:101C00002DB11548406920431349486104E012484A
:101C10004069A0431049486170BD00004C69627280
:101C200061726965735C53544D3332463130785F6D
:101C30005374645065726970685F44726976657246
:101C40005C7372635C73746D3332663130785F72CB
:101C500063632E63000000000010024070B504466C
:101C60000D461048204008B904B104E040F2694133
:101C70000DA003F071FB0DB1012D00D104E040F285
:101C80006A4109A003F068FB2DB11648C0692043E2
:101C90001449C86104E01348C069A0431149C861F0
:101CA00070BD0000003601814C6962726172696525
:101CB000735C53544D3332463130785F5374645003
:101CC00065726970685F4472697665725C7372638D
:101CD0005C73746D3332663130785F7263632E6388
:101CE000000000000010024070B504460D46104888
:101CF000204008B904B104E040F24A410DA003F0CD
:101D00002BFB0DB1012D00D104E040F24B4109A0A5
:101D100003F022FB2DB116488069204314498861E5
:101D200004E013488069A0431149886170BD000038
:101D30000200C0FF4C69627261726965735C535442
:101D40004D3332463130785F537464506572697038
:101D5000685F4472697665725C7372635C73746DFC
:101D60003332663130785F7263632E6300000000A7
:101D70000010024010B501210420FFF7B5FF01213A
:101D80008803FFF7B1FF01210420FFF7ADFF012118
:101D90004804FFF763FF01210820FFF7A5FF012199
:101DA0008804FFF75BFF10BD30B50021002200243E
:101DB00000232D4D6D6805F00C0121B1042905D0DB
:101DC000082923D105E0294D056022E0274D056053
:101DD0001FE0254D6D6805F47012234D6D6805F404
:101DE0008034022505EB92421CB9214D5543056014
:101DF0000BE01D4D6D6805F400351DB11C4D5543BC
:101E0000056002E0194D5543056002E0174D05607D
:101E100000BF00BF144D6D6805F0F0010909154DB4
:101E20006B5C0568DD4045600F4D6D6805F4E06151
:101E3000090A104D6B5C4568DD4085600A4D6D6890
:101E400005F46051C90A0B4D6B5C4568DD40C56007
:101E5000054D6D6805F44041890B074D6B5CC56805
:101E6000B5FBF3F5056130BD0010024000127A00A9
:101E700000093D005C0000206C000020704710B598
:101E800000F002F810BD00000CB500200190009099
:101E90003348006840F480303149086000BF304862
:101EA000006800F4003000900198401C01900098F8
:101EB00018B90198B0F5A06FF1D12948006800F475
:101EC000003010B10120009001E000200090009847
:101ED000012843D12348006840F0100021490860E0
:101EE0000846006820F0030008600846006840F0DB
:101EF000020008601A48406819494860084640686E
:101F000048600846406840F4806048600846406881
:101F100020F47C1048600846406840F4E8104860AF
:101F20000846006840F08070086000BF0C480068F8
:101F300000F000700028F9D00948406820F0030044
:101F4000074948600846406840F00200486000BF0A
:101F50000348406800F00C000828F9D10CBD0000CF
:101F6000001002400020024010B505F0A3FA07F06F
:101F7000DFFE05F0B7FA10BD10B51348006840F059
:101F800001001149086008464068104908400E49A0
:101F90004860084600680E4908400B49086008463A
:101FA000006820F4802008600846406820F4FE00A5
:101FB00048604FF41F008860FFF761FF4FF000603A
:101FC0000449086010BD0000001002400000FFF846
:101FD000FFFFF6FE08ED00E010B5144C05F06AFABC
:101FE00040F22551206800F0C3F940B101211048AA
:101FF00005F0D0F840F22551206800F077F840F263
:102000002661206800F0B4F920B140F22661206812
:1020100000F06CF80821206800F032F9012802D1A4
:1020200003480FF0F3F905F05DFA10BD0800002039
:102030005002002010B5144C05F03CFA40F2255136
:10204000206800F095F940B10121104805F0A2F890
:1020500040F22551206800F049F840F226612068DE
:1020600000F086F920B140F22661206800F03EF8C9
:102070000821206800F004F9012802D103480FF07C
:10208000C5F905F02FFA10BD10000020A4020020B1
:1020900010B5144C05F00EFA40F22551206800F0FE
:1020A00067F940B10121104805F074F840F225515C
:1020B000206800F01BF840F22661206800F058F913
:1020C00020B140F22661206800F010F80821206855
:1020D00000F0D6F8012802D103480FF097F905F077
:1020E00001FA10BD18000020F80200202DE9F0418F
:1020F00004460D4600260027224884420BD0224881
:10210000844208D02148844205D02148844202D02C
:102110002048844200D104E040F20A411EA003F0AE
:102120001BF940F2266085420BD040F225508542D3
:1021300007D040F64600854203D040F66A1085423B
:1021400000D104E040F20B4113A003F005F940F682
:102150006A1085420ED10B48844205D00A48844259
:1021600002D00A48844200D104E040F20F410AA0A4
:1021700003F0F2F82E120120B04087B2F84320801D
:10218000BDE8F081003801400044004000480040B4
:10219000004C0040005000404C69627261726965F9
:1021A000735C53544D3332463130785F537464500E
:1021B00065726970685F4472697665725C73726398
:1021C0005C73746D3332663130785F75736172742D
:1021D0002E63000070B504460D46154884420BD0AE
:1021E0001448844208D01448844205D013488442DD
:1021F00002D01348844200D104E04FF4B17111A021
:1022000003F0AAF80DB1012D00D104E040F26311F2
:102210000CA003F0A1F825B1A08940F40050A081E2
:1022200004E0A0894DF6FF710840A08170BD000058
:10223000003801400044004000480040004C00408D
:10224000005000404C69627261726965735C53545E
:102250004D3332463130785F537464506572697023
:10226000685F4472697665725C7372635C73746DE7
:102270003332663130785F75736172742E6300009B
:1022800070B505460C460026254885420BD02548EA
:10229000854208D02448854205D02448854202D092
:1022A0002348854200D104E040F26E3121A003F0C2
:1022B00053F8012C13D0802C11D0402C0FD0202C9F
:1022C0000DD0102C0BD0B4F5807F08D0B4F5007F72
:1022D00005D0082C03D0042C01D0022C00D104E03E
:1022E00040F26F3113A003F037F8B4F5007F0ED140
:1022F0000B48854205D00B48854202D00A488542EA
:1023000000D104E040F273310AA003F025F82888D8
:10231000204008B1012600E00026304670BD0000D4
:10232000003801400044004000480040004C00409C
:10233000005000404C69627261726965735C53546D
:102340004D3332463130785F537464506572697032
:10235000685F4472697665725C7372635C73746DF6
:102360003332663130785F75736172742E630000AA
:102370002DE9F04705460C4600270026B046B14639
:102380003A4885420BD03A48854208D039488542C0
:1023900005D03948854202D03848854200D104E052
:1023A00040F2C13136A002F0D7FF282C20D040F2F5
:1023B000277084421CD040F22660844218D040F23C
:1023C0002550844214D040F22440844210D040F67C
:1023D000460084420CD040F66A10844208D0B4F51E
:1023E000587F05D0B4F5187F02D0B4F5B07F00D186
:1023F00004E040F2C23122A002F0AEFF40F66A10C3
:1024000084420ED11948854205D01948854202D030
:102410001848854200D104E040F2C63118A002F00D
:102420009BFFC4F3421804F01F06012000FA06F6D1
:10243000B8F1010F02D1A889064007E0B8F1020FF8
:1024400002D1288A064001E0A88A0640271201200E
:1024500000FA07F7288807401EB117B14FF00109AD
:1024600001E04FF000094846BDE8F0870038014020
:102470000044004000480040004C00400050004034
:102480004C69627261726965735C53544D333246B4
:102490003130785F5374645065726970685F44725C
:1024A000697665725C7372635C73746D3332663126
:1024B00030785F75736172742E6300002DE9F04708
:1024C00005460C4617464FF00008C246C146002696
:1024D000384885420BD03848854208D03748854275
:1024E00005D03748854202D03648854200D104E005
:1024F00040F2891134A002F02FFF282C19D040F2AD
:102500002770844215D040F22660844211D040F2F8
:10251000255084420DD040F22440844209D040F638
:102520004600844205D040F66A10844201D0602CF7
:1025300000D104E04FF4C57123A002F00DFF0FB1EC
:10254000012F00D104E040F28B111FA002F004FF24
:1025500040F66A1084420ED11648854205D01648CE
:10256000854202D01548854200D104E040F28F1127
:1025700015A002F0F1FE2E46C4F3421804F01F0A23
:10258000012000FA0AF9B8F1010F01D10C3605E07B
:10259000B8F1020F01D1103600E0143627B13068CF
:1025A00040EA0900306003E0306820EA090030604A
:1025B000BDE8F0870038014000440040004800407A
:1025C000004C0040005000404C69627261726965C5
:1025D000735C53544D3332463130785F53746450DA
:1025E00065726970685F4472697665725C73726364
:1025F0005C73746D3332663130785F7573617274F9
:102600002E6300002DE9F04786B005460C460026F3
:10261000B24600BFB14600276B4885420BD06B48DD
:10262000854208D06A48854205D06A48854202D072
:102630006948854200D103E0B82168A002F08CFE11
:10264000206820B174492068884200D203E0B92193
:1026500062A002F081FEA08818B1A088B0F5805F6A
:1026600000D103E0BA215DA002F076FEE08858B107
:10267000E088B0F5805F07D0E088B0F5005F03D058
:10268000E088B0F5405F00D103E0BB2153A002F029
:1026900063FE208938B12089B0F5806F03D020898E
:1026A000B0F5C06F00D103E0BC214CA002F054FE95
:1026B00060894FF6F371084010B9608900B103E0FA
:1026C000BD2146A002F048FEA08958B1A089B0F50E
:1026D000807F07D0A089B0F5007F03D0A089B0F536
:1026E000407F00D103E0BE213CA002F035FEA0896E
:1026F00068B13548854205D03448854202D0344817
:10270000854200D103E0C22134A002F025FE2F460D
:102710002E8A4CF6FF700640E08806432E82AE8972
:102720004EF6F3100640A0882189084361890843CA
:102730000643AE81AE8A4FF6FF400640A0890643AD
:10274000AE8201A8FFF730FB1F48874202D1DDF8B7
:1027500010A001E0DDF80CA0A88900F4004040B111
:102760000AEBCA0000EB0A1021684900B0FBF1F83F
:1027700007E00AEBCA0000EB0A1021688900B0FBF1
:10278000F1F86420B8FBF0F006013009642101FB88
:102790001089A88900F4004040B1322000EBC90044
:1027A000B0FBF1F000F00700064308E0322000EB38
:1027B00009106421B0FBF1F000F00F0006432E81F8
:1027C00006B0BDE8F087000000380140004400403A
:1027D00000480040004C0040005000404C696272CC
:1027E00061726965735C53544D3332463130785FA2
:1027F0005374645065726970685F4472697665727B
:102800005C7372635C73746D3332663130785F75FC
:10281000736172742E63000021AA440000BFFEE7BA
:10282000014609B900207047C8B220B1C8B20E4AAB
:10283000105C401CF7E701F47F4028B10A48C1F35F
:102840000722805C0930EEE701F47F0028B10648DA
:10285000C1F30742805C1130E5E7034800EB1160EB
:1028600000781930DFE70000BD17010802E008C852
:10287000121F08C1002AFAD170477047002001E0FA
:1028800001C1121F002AFBD170472DE9FF5F83466B
:102890009A460EAC94E87001C8F1FF09BAF1010F35
:1028A00006D0BAF1020F31D0BAF1030F7CD15BE050
:1028B00000BF5846DDE9011200F0E9FA074600BF03
:1028C000D7F800C0CCF30740B7F800C0CCF307211D
:1028D0003A78D7F800C04FEA1C6309FB00FC04EB10
:1028E0001C2009FB01FC05EB1C2109FB02FC06EB8B
:1028F0001C224FEA036C4CEA004C4CEA012C4CEAD7
:10290000020CC7F800C000BF00BF76E000BF584609
:10291000DDE9011200F0BBFA074600BFD7F800C09E
:10292000CCF30740B7F800C0CCF307213A78D7F8CA
:1029300000C04FEA1C632044FF2800D9FF2029442F
:10294000FF2900D9FF213244FF2A00D9FF224FEA94
:10295000036C4CEA004C4CEA012C4CEA020CC7F820
:1029600000C000BF00BF48E000BF5846DDE90112CB
:1029700000F08DFA074600BFD7F800C0CCF307403F
:10298000B7F800C0CCF307213A78D7F800C04FEA77
:102990001C6300FB04FC4FEA1C2001FB05FC4FEA12
:1029A0001C2102FB06FC00E00EE04FEA1C224FEA6D
:1029B000036C4CEA004C4CEA012C4CEA020CC7F8C0
:1029C00000C000BF00BF18E000BF5846DDE901129B
:1029D00000F05DFA074600BF2046294632464346CE
:1029E0004FEA036C4CEA004C4CEA012C4CEA020C16
:1029F000C7F800C000BF00BF00BF00BF002004B088
:102A0000BDE8F09F2DE9FF5F834699460EAC94E840
:102A10007004CAF1FF08B9F1010F06D0B9F1020F35
:102A20003AD0B9F1030F6ED16EE000BF5846DDE930
:102A3000011200F02CFA074600BF5D4BDB68B7F8C7
:102A400000C003EBDC231A78594B9B68B7F800C031
:102A5000CCF3451C13F80C10554BDB6897F800C0FD
:102A60000CF01F0C13F80C0008FB00F304EB132010
:102A700008FB01F305EB132108FB02F306EB13221D
:102A8000D308DB024FEA910C43EA4C1343EAD0032C
:102A90003B8000BF00BF86E000BF5846DDE9011261
:102AA00000F0F5F9074600BF414BDB68B7F800C0FE
:102AB00003EBDC231A783E4B9B68B7F800C0CCF3DD
:102AC000451C13F80C103A4BDB6897F800C00CF06B
:102AD0001F0C13F80C002044FF2800D9FF202944C4
:102AE000FF2900D9FF213244FF2A00D9FF22D30851
:102AF000DB024FEA910C43EA4C1343EAD0033B80DC
:102B000000BF00BF4FE033E000BF5846DDE90112CF
:102B100000F0BDF9074600BF254BDB68B7F800C0E1
:102B200003EBDC231A78224B9B68B7F800C0CCF388
:102B3000451C13F80C101E4BDB6897F800C00CF016
:102B40001F0C13F80C0000FB04F3180A01FB05F33B
:102B5000190A02FB06F31A0AD308DB024FEA910CAA
:102B600043EA4C1343EAD0033B8000BF00BF1AE0A6
:102B700000BF5846DDE9011200F089F9074600BFA1
:102B800020462946324653464FEAD20C4FEACC2C17
:102B90004FEA910E4CEA4E1C4CEAD00CA7F800C04C
:102BA00000BF00BF00BF00BF002004B0BDE8F09F21
:102BB000C40100202DE9FF5F834699460EAC94E8DE
:102BC0007004CAF1FF08B9F1010F06D0B9F1020F84
:102BD0003AD0B9F1030F6ED16EE000BF5846DDE97F
:102BE000011200F054F9074600BF5D4BDB68B7F8EF
:102BF00000C003EBDC231878594B9B68B7F800C082
:102C0000CCF3451C13F80C10554BDB6897F800C04B
:102C10000CF01F0C13F80C2008FB00F304EB13203E
:102C200008FB01F305EB132108FB02F306EB13226B
:102C3000C308DB024FEA910C43EA4C1343EAD20388
:102C40003B8000BF00BF86E000BF5846DDE90112AF
:102C500000F01DF9074600BF414BDB68B7F800C024
:102C600003EBDC2318783E4B9B68B7F800C0CCF32D
:102C7000451C13F80C103A4BDB6897F800C00CF0B9
:102C80001F0C13F80C202044FF2800D9FF202944F2
:102C9000FF2900D9FF213244FF2A00D9FF22C308AF
:102CA000DB024FEA910C43EA4C1343EAD2033B8028
:102CB00000BF00BF4FE033E000BF5846DDE901121E
:102CC00000F0E5F8074600BF254BDB68B7F800C009
:102CD00003EBDC231878224B9B68B7F800C0CCF3D9
:102CE000451C13F80C101E4BDB6897F800C00CF065
:102CF0001F0C13F80C2000FB04F3180A01FB05F36A
:102D0000190A02FB06F31A0AC308DB024FEA910C08
:102D100043EA4C1343EAD2033B8000BF00BF1AE0F2
:102D200000BF5846DDE9011200F0B1F8074600BFC8
:102D300020462946324653464FEAD00C4FEACC2C67
:102D40004FEA910E4CEA4E1C4CEAD20CA7F800C098
:102D500000BF00BF00BF00BF002004B0BDE8F09F6F
:102D6000C40100202DE9FF5F834699460EAC94E82C
:102D70007004CAF1FF08B9F1010F06D0B9F1020FD2
:102D800026D0B9F1030F66D145E000BF5846DDE912
:102D9000011200F07CF8074600BF3B68C3F3074010
:102DA0003B88C3F307213A7808FB00F304EB1320B8
:102DB00008FB01F305EB132108FB02F306EB1322DA
:102DC000030443EA012313433B6000BF00BF59E003
:102DD00000BF5846DDE9011200F059F8074600BF70
:102DE0003B68C3F307403B88C3F307213A7820448C
:102DF000FF2800D9FF202944FF2900D9FF213244B0
:102E0000FF2A00D9FF22030443EA012313433B6056
:102E100000BF00BF36E000BF5846DDE9011200F0F8
:102E200036F8074600BF3B68C3F307403B88C3F34F
:102E300007213A7800FB04F3180A01FB05F3190A8D
:102E400002FB06F31A0A030443EA012313433B601F
:102E500000BF00BF16E000BF5846DDE9011200F0D8
:102E600016F8074600BF20462946324653464FEA29
:102E7000004C4CEA012C4CEA020CC7F800C000BF21
:102E800000BF00BF00BF002004B0BDE8F09F2DE9E7
:102E9000F04704460D4616460027206810B120680A
:102EA000012818D109F00EFF876817B90020BDE886
:102EB000F08709F007FF408806FB007909F002FF60
:102EC000407800F107084FEAE87008EB5070C01036
:102ED00005FB009710E0206802280DD1A04698F865
:102EE000180008F07FFAB8F81E20D8F8201006FB6A
:102EF000021105FB001700BF3846D8E703490868F0
:102F0000884201D0012070470020FCE75C010020CE
:102F100070B596B005465022124902A8FDF79AF9FD
:102F200011A004F055FB1BA004F052FB2E6813E027
:102F3000A6F10C04A07E0090207D132804DC207DE7
:102F400002A951F8200000E0159803462246082106
:102F50001BA004F03DFB3668AE42E9D1002016B05C
:102F600070BD0000301C010864657669636520202F
:102F7000207479706520202020202020202020200F
:102F800020202020202072656620636F756E740AF1
:102F9000000000002D2D2D2D2D2D2D2D202D2D2D22
:102FA0002D2D2D2D2D2D2D2D2D2D2D2D2D2D2D2D51
:102FB0002D202D2D2D2D2D2D2D2D2D2D0A000000F8
:102FC000252D382E2A7320252D32307320252D38BB
:102FD000640A0000F8B5054616A004F0F9FA1EA030
:102FE00004F0F6FA2E6821E0A6F10C0404F11400B6
:102FF00004F07FFB98B904F1140004F08AFB074643
:103000000090224608211DA0E36904F0E1FA04F1D2
:1030100014000EF013F91FA004F0DAFA05E02246BE
:1030200008211DA0E36904F0D3FA3668AE42DBD173
:103030000020F8BD6576656E7420202020736574CD
:10304000202020202020202073757370656E64205E
:103050007468726561640A002D2D2D2D2D2D2D2D86
:10306000202D2D2D2D2D2D2D2D2D2D202D2D2D2DAA
:103070002D2D2D2D2D2D2D2D2D2D0A00252D382ECC
:103080002A73202030782530387820253033643A70
:10309000000000000A000000252D382E2A73202091
:1030A00030782530387820300A0000002DE9FC41C6
:1030B00005461CA004F08CFA23A004F089FA2E68BF
:1030C0002BE0A6F10C0404F1140004F012FBA8B9E3
:1030D00004F1140004F01DFB0746208CCDE9000725
:1030E000638C2246082121A004F072FA04F1140036
:1030F0000EF0A4F823A004F06BFA0DE004F1140024
:1031000004F007FB0746208CCDE90007638C2246BC
:1031100008211DA004F05CFA3668AE42D1D100202F
:10312000BDE8FC816D61696C626F782020656E740A
:1031300072792073697A652073757370656E642087
:103140007468726561640A002D2D2D2D2D2D2D2D95
:10315000202D2D2D2D20202D2D2D2D202D2D2D2DD3
:103160002D2D2D2D2D2D2D2D2D2D0A00252D382EDB
:103170002A732025303464202025303464202564CF
:103180003A0000000A000000252D382E2A73202561
:103190003034642020253034642025640A00000087
:1031A000FEB5054618A004F013FA22A004F010FAA8
:1031B0002E6824E0A6F10C04606B98B1D4E90912E2
:1031C000606BCDE9001202902246082124A0E36939
:1031D00004F0FEF904F12C000EF030F814A004F015
:1031E000F7F90BE0D4E90912606BCDE90012029007
:1031F0002246082121A0E36904F0EAF93668AE42CC
:10320000D8D10020FEBD00006D656D706F6F6C2021
:1032100020626C6F636B20746F74616C20667265E2
:10322000652073757370656E64207468726561647F
:103230000A0000002D2D2D2D2D2D2D2D202D2D2D75
:103240002D20202D2D2D2D20202D2D2D2D202D2DEF
:103250002D2D2D2D2D2D2D2D2D2D2D2D0A00000048
:10326000252D382E2A732025303464202025303433
:10327000642020253034642025643A00252D382E22
:103280002A73202530346420202530346420202502
:103290003034642025640A00F8B5054619A004F00E
:1032A00097F920A004F094F92E6827E0A6F10C0409
:1032B00004F1140004F01DFA98B904F1140004F0AC
:1032C00028FA07460090A38C224608211DA004F08E
:1032D0007FF904F114000DF0B1FF1FA004F078F99C
:1032E0000BE004F1140004F014FA07460090A38CDC
:1032F0002246082119A004F06BF93668AE42D5D1F8
:103300000020F8BD6D7367717565756520656E7415
:1033100072792073757370656E642074687265616C
:10332000640A00002D2D2D2D2D2D2D2D202D2D2D20
:103330002D20202D2D2D2D2D2D2D2D2D2D2D2D2DD7
:103340002D0A0000252D382E2A73202530346420C4
:103350002025643A000000000A000000252D382EC8
:103360002A732025303464202025640A00000000E0
:10337000FEB505460FA004F02BF918A004F028F9BB
:103380002E6812E0A6F10C0404F1140004F0C1F957
:103390000746E07F216A08232246CDE90107009114
:1033A000194618A004F014F93668AE42EAD100209C
:1033B000FEBD00006D75746578202020206F776E4B
:1033C000657220202020686F6C64207375737065AF
:1033D0006E64207468726561640A00002D2D2D2DC5
:1033E0002D2D2D2D202D2D2D2D2D2D2D2D202D2D27
:1033F0002D2D202D2D2D2D2D2D2D2D2D2D2D2D2D0A
:103400002D0A0000252D382E2A7320252D382E2A2E
:103410007320253034642025640A0000F8B5054681
:1034200019A004F0D5F820A004F0D2F82E6827E007
:10343000A6F10C0404F1140004F05BF998B904F14E
:10344000140004F066F907460090A38B2246082179
:103450001DA004F0BDF804F114000DF0EFFE11A062
:1034600004F0B6F80BE004F1140004F052F907463A
:103470000090A38B2246082118A004F0A9F8366812
:10348000AE42D5D10020F8BD73656D6170686F7272
:1034900065207620202073757370656E64207468D3
:1034A000726561640A0000002D2D2D2D2D2D2D2D0E
:1034B00020202D2D2D202D2D2D2D2D2D2D2D2D2D63
:1034C0002D2D2D2D0A000000252D382E2A732020A9
:1034D000253033642025643A00000000252D382E65
:1034E0002A732020253033642025640A0000000060
:1034F0002DE9FC410546294804F06AF8284804F003
:1035000067F82E6845E0A6F10C0494F835302246A1
:10351000082124A004F05CF894F83400012803D1B9
:1035200024A004F055F815E094F83400022803D1E3
:1035300023A004F04DF80DE094F8340018B923A04E
:1035400004F046F806E094F83400042802D122A0E2
:1035500004F03EF8A76A00E07F1C38782328FBD0EF
:10356000216BA06CCDE90001A08DD4F828C0A7EB99
:103570000C0CA0EB0C03D4F81CC0A06AA0EB0C0050
:10358000B4F82CC000EB0C01624616A004F020F841
:103590003668AE42B7D10020BDE8FC81E84C010896
:1035A000A04C0108252D382E2A7320307825303282
:1035B000780000002072656164792020000000001E
:1035C0002073757370656E640000000020696E6979
:1035D000742020200000000020636C6F73652020A1
:1035E00000000000203078253038782030782530F1
:1035F0003878203078253038782030782530387881
:1036000020253033640A0000F8B5054614A003F005
:10361000DFFF1DA003F0DCFF2E6815E0A6F10C040F
:10362000A06A00902246082122A0636A03F0D0FF1E
:10363000607A00F0010018B124A003F0C9FF02E095
:1036400025A003F0C5FF3668AE42E7D106F06AFB5D
:103650000746394624A003F0BBFF0020F8BD000058
:1036600074696D657220202020706572696F6469CD
:103670006320202074696D656F757420202020669A
:103680006C61670A000000002D2D2D2D2D2D2D2D94
:10369000202D2D2D2D2D2D2D2D2D2D202D2D2D2D74
:1036A0002D2D2D2D2D2D202D2D2D2D2D2D2D2D2D57
:1036B0002D2D0A00252D382E2A73203078253038FC
:1036C00078203078253038782000000061637469F4
:1036D00076617465640A000064656163746976618B
:1036E0007465640A0000000063757272656E742070
:1036F0007469636B3A3078253038780A000000002E
:103700002DE9F04781460F4690461C4609F024FB00
:1037100006462649D9F800000968884222D13D466C
:103720001DE0E21704EB5272D210B36853F8222066
:10373000525D2146E31704EB5373DB10A4EBC30C7B
:10374000012303FA0CF39A432046E31704EB537367
:10375000DB10D6F808C05CF823305A556D1C45457F
:10376000DFD321E03D461DE0E21704EB5272D21098
:10377000B36853F82220525D2146E31704EB5373DC
:10378000DB10A4EBC30C012303FA0CF31A4320460D
:10379000E31704EB5373DB10D6F808C05CF8233052
:1037A0005A556D1C4545DFD3BDE8F087C03D010883
:1037B0002DE9F0470746884691461C4609F0CCFAA9
:1037C0000646454644E007EBD500007810B305F007
:1037D000070101208840E8B1E21704EB5272D210D1
:1037E000B36853F82220525D2146E31704EB53736C
:1037F000DB10A4EBC30C012303FA0CF31A4320469D
:10380000E31704EB5373DB10D6F808C05CF82330E1
:103810005A551CE0E21704EB5272D210B36853F809
:103820002220525D2146E31704EB5373DB10A4EB17
:10383000C30C012303FA0CF39A432046E31704EB6D
:103840005373DB10D6F808C05CF823305A556D1C52
:103850004D45B8D3BDE8F0872DE9F04781460D46C8
:103860001746984609F078FA06461849D9F8000034
:103870000968884214D13C460FE0E108B06850F86E
:103880002100405D04F00702012191408843E208D5
:10389000B16851F822104855641C4445EDD313E03B
:1038A0003C460FE0E108B06850F82100405D04F0AC
:1038B0000702012191400843E208B16851F8221043
:1038C0004855641C4445EDD3BDE8F087C03D010870
:1038D0002DE9F04105460E46144609F03DFA07462B
:1038E000E21704EB5272D210BB6853F82220925DAB
:1038F000E31704EB5373DB10A4EBC30C012303FAAF
:103900000CF31A401AB104480068286002E003482A
:1039100000682860BDE8F081BC3D0108C03D010899
:103920002DE9F04107460D46144609F015FA064602
:1039300020493868096888421DD1E21704EB5272A9
:10394000D210B36853F82220525D2146E31704EBEE
:103950005373DB10A4EBC30C012303FA0CF39A435B
:103960002046E31704EB5373DB10D6F808C05CF86D
:1039700023305A551CE0E21704EB5272D210B368A0
:1039800053F82220525D2146E31704EB5373DB10FA
:10399000A4EBC30C012303FA0CF31A432046E317EC
:1039A00004EB5373DB10D6F808C05CF823305A558B
:1039B000BDE8F081C03D01082DE9F04707460D46FE
:1039C00014461E46AC420DDD09F0C6F9C068C06B56
:1039D000A4EB0508434632462946D0F810903846F5
:1039E000C8470CE009F0B8F9C068C06BA5EB040843
:1039F000434632462146D0F810903846C847BDE8C5
:103A0000F0872DE9F84304460D4616461F46206808
:103A100007F021FD009009F09FF9C068C06B3B469C
:103A200032462946D0F808806846C047BDE8F8838A
:103A30002DE9F84304460D4616461F46206807F058
:103A40000AFD009009F088F9C068C06B3B46324619
:103A50002946D0F80C806846C047BDE8F8830000CE
:103A6000F8B504460D46164609F076F9C068C06BF5
:103A70003246294647686846B8479DF8001011B19C
:103A8000034A106801E0034A106800BF2060F8BDD7
:103A9000C03D0108BC3D0108F8B504460D46164678
:103AA000206807F0D8FC009009F056F9C068C06B98
:103AB0003246294607686846B847F8BD2DE9F843FD
:103AC00004460D4616461F46206807F09BFC0090F2
:103AD00009F042F9C068C06B3B4632462946D0F82F
:103AE00008806846C047BDE8F8832DE9F8430446DE
:103AF0000D4616461F46206807F084FC009009F02A
:103B00002BF9C068C06B3B4632462946D0F80C8082
:103B10006846C047BDE8F883F8B504460D4616462A
:103B200009F01AF9C068C06B3246294647686846F2
:103B3000B847BDF8000007F01FFC2060F8BDF8B5DD
:103B400004460D461646206807F05CFC009009F01C
:103B500003F9C068C06B3246294607686846B84713
:103B6000F8BD2DE9F84304460D4616461F46206869
:103B700007F057FC009009F0EFF8C068C06B3B46B7
:103B800032462946D0F808806846C047BDE8F88329
:103B90002DE9F84304460D4616461F46206807F0F7
:103BA00040FC009009F0D8F8C068C06B3B46324634
:103BB0002946D0F80C806846C047BDE8F883F8B5C0
:103BC00004460D46164609F0C7F8C068C06B324679
:103BD000294647686846B847BDF8000007F0E7FB8C
:103BE0002060F8BDF8B504460D461646206807F07B
:103BF00018FC009009F0B0F8C068C06B3246294646
:103C000007686846B847F8BD2DE9F84304460D46F5
:103C100016461F46206807F012FC009009F09CF839
:103C2000C068C06B3B4632462946D0F808806846DB
:103C3000C047BDE8F8832DE9F84304460D46164613
:103C40001F46206807F0FBFB009009F085F8C0686C
:103C5000C06B3B4632462946D0F80C806846C047C8
:103C6000BDE8F883F8B504460D46164609F074F829
:103C7000C068C06B3246294647686846B847009816
:103C8000C0F30723024663F31F22C0F3074342EA4F
:103C9000034242F07F4100BF2160F8BDF8B5044601
:103CA0000D461646206807F0CAFB009009F054F84C
:103CB000C068C06B3246294607686846B847F8BDF9
:103CC0002DE9F84F05460C4616461F46286807F0B2
:103CD00099FB009009F040F8D0F808B009F03CF8E2
:103CE000408807FB00BB09F037F8407800F1070A6D
:103CF0004FEAEA700AEB5070C01004FB00B9A0460E
:103D000006E00098A9F8000009F1020908F101088D
:103D1000B045F6D3BDE8F88F2DE9F05F06460F46B3
:103D20001546984609F018F80446306807F06AFB13
:103D300083466288A16805FB02126178C81DC1171D
:103D400000EB5171C91007FB0129AA4605E0A9F84B
:103D500000B0608881440AF1010AC245F7D3BDE88A
:103D6000F09F2DE9F04704460D46164608F0F4FF93
:103D7000D0F8089008F0F0FF408806FB009908F0A2
:103D8000EBFF4078C71DF81707EB5070C010684371
:103D900039F80080404607F0EFFA2060BDE8F08770
:103DA0002DE9F04704460D461646206807F02AFB29
:103DB000804608F0D1FFD0F8089008F0CDFF408889
:103DC00006FB009908F0C8FF4078C71DF81707EBFD
:103DD0005070C010684329F80080BDE8F0872DE9D5
:103DE000F84F05460C4616461F46286807F019FB93
:103DF000009008F0B1FFD0F808B008F0ADFF40889F
:103E000007FB00BB08F0A8FF407800F1070A4FEA63
:103E1000EA700AEB5070C01004FB00B9A04606E03F
:103E20000098A9F8000009F1020908F10108B0455D
:103E3000F6D3BDE8F88F2DE9F05F06460F4615462C
:103E4000984608F089FF0446306807F0EAFA83468E
:103E50006288A16805FB02126178C81DC11700EBDA
:103E60005171C91007FB0129AA4605E0A9F800B065
:103E7000608881440AF1010AC245F7D3BDE8F09F8A
:103E80002DE9F04704460D46164608F065FFD0F8C8
:103E9000089008F061FF408806FB009908F05CFF7D
:103EA0004078C71DF81707EB5070C010684339F809
:103EB0000080404607F07BFA2060BDE8F0872DE9DE
:103EC000F04704460D461646206807F0AAFA8046D9
:103ED00008F042FFD0F8089008F03EFF408806FB4B
:103EE000009908F039FF4078C71DF81707EB5070AC
:103EF000C010684329F80080BDE8F08770B504461B
:103F000024B95A22114912A002F0FEF9A16AE0690F
:103F1000884205D9A18DA06A0844E16988420AD285
:103F2000214610A003F054FBFCF71EF9054600BF24
:103F3000002DFDD108E0A06A2030E169814203D85C
:103F400021460FA003F044FB70BD00008319010857
:103F500074687265616420213D2052545F4E554C57
:103F60004C0000007468726561643A2573207374B4
:103F700061636B206F766572666C6F770A00000074
:103F80007761726E696E673A20257320737461637E
:103F90006B20697320636C6F736520746F20656E8E
:103FA00064206F6620737461636B20616464726562
:103FB00073732E0A000000002DE9FC5F04468B4657
:103FC00016461F46DDE90C9ADDE90E5804F114008F
:103FD0004060006000BF26626762C4F82890A4F8C1
:103FE0002CA0A28D2321A06A03F0C7FFB4F82CC037
:103FF000A36A63441A1F134BD4E9080103F0AAF91A
:10400000E061202D04DB6E220F4910A002F07CF944
:104010003034A5716571C4F81480C4F8188000208C
:1040200020602071A064E064303C00902346104A78
:104030002146019004F14C0005F034FF0020BDE85A
:10404000FC9F0000F5980008D11901087072696F93
:1040500072697479203C2052545F5448524541445F
:104060005F5052494F524954595F4D41580000002A
:10407000459C00082DE9F04704460E461746984631
:10408000DDF8209084F80990607A20F001006072D9
:10409000E66127620020A062C4F82480002506E0C3
:1040A00004F1140101EBC50003F0CCFA6D1C012DE5
:1040B000F6DBBDE8F08710B50246002001460EE0B1
:1040C00002F1140303EBC100D0E900436360D0E9BF
:1040D000003423604060006000BF481C0146012995
:1040E000EEDB10BD10B504460849204609F022FB5E
:1040F00000202061606104202076002060836065DC
:10410000A08320626062E064206510BDD1A6000833
:1041100010B5044624B92922044905A002F0F4F898
:10412000206902F091FD0020206110BDC843010804
:1041300061707020213D2052545F4E554C4C000060
:104140002DE9F04107460E463546E86810B90020D3
:10415000BDE8F081E86838B1E86890F8960000F0B2
:10416000020008B10120F3E7EC68208900F42B403D
:10417000B0F52B4F01D00120EAE7EC6844B160684C
:1041800020B13146204662689047E1E70020DFE732
:10419000318802A003F01CFA0020D9E75254475599
:1041A00049204552524F523A7365727665722073B8
:1041B000656E742061206576656E742825642920FB
:1041C000776974686F7574207769640A000000006D
:1041D0002DE9F041044600BF2CB940F23D122A49B6
:1041E0002AA002F091F8206A28B940F23D1226492F
:1041F0002AA002F089F8206AC06F28B940F23D1267
:1042000021492BA002F080F8606A28B940F23D12E3
:104210001D492EA002F078F800BF04F12807608B3A
:10422000401C86B2668329E0608BB04205D040F224
:10423000451215492AA002F067F8206D90B10022BE
:104240002421384609F028FF054625B9394620467D
:104250006268904712E0A81C80B900212046226DB8
:1042600090470BE04FF0FF322421384609F014FF4D
:1042700005461DB93946204662689047608BB042BA
:10428000D2DABDE8F081000043440108617070207B
:10429000213D2052545F4E554C4C00006170702DF2
:1042A0003E74696420213D2052545F4E554C4C00B1
:1042B0006170702D3E7469642D3E757365725F6424
:1042C00061746120213D2030000000006170702D7C
:1042D0003E6D7120213D2052545F4E554C4C0000E4
:1042E00063757272656E745F726566203D3D206114
:1042F00070702D3E7265665F636F756E74000000AE
:1043000000487047B443010810B504460021204618
:1043100009F010FA012020820220608200206061F2
:1043200010BD000010B504460649204609F002FA07
:1043300000BF0020E06600BFA066E06940F010000A
:10434000E06110BD79B5000810B50446204607F0BD
:10435000A4F8A06E10B1A06E09F0B6F910BD00006F
:1043600000487047DC3D010800B970474FF42B410D
:104370000181C06000BFF8E7002101810160704742
:1043800070B5054628460BF001FD044604B970BD22
:10439000204600F0F3FA00BFF9E7000070B50446CC
:1043A0002CB94FF424721F491FA001F0ADFFE06942
:1043B00028B940F291221B4920A001F0A5FF20E07E
:1043C000E069856A18E035F8200C20F0080025F82F
:1043D000200CA5F12000C06890F8960020F008019C
:1043E000A5F12000C06880F8961035F8200C00F484
:1043F000807000B109E02D68E0692830A842E2D160
:10440000E469E0690028DBD100BF208820F00800C3
:104410002080E06890F8960020F00800E16881F8BC
:10442000960070BD41480108746F7077696E202155
:104430003D2052545F4E554C4C000000746F707715
:10444000696E2D3E706172656E7420213D2052545C
:104450005F4E554C4C00000070B504460D462DB91A
:1044600040F27B320C490DA001F04EFF2CB94FF405
:104470005F7209490EA001F047FFE26802F1840172
:1044800002F178000AF037F9E26802F17801084693
:104490002A4609F06DFF70BDA24801087265676980
:1044A0006F6E20213D2052545F4E554C4C00000051
:1044B000746F7077696E20213D2052545F4E554CC9
:1044C0004C00000070B505462DB94FF486720849BE
:1044D00008A001F019FFEC6906E0207800F0040064
:1044E00008B9002070BDE469002CF6D10120F9E77D
:1044F00009470108746F7077696E20213D2052547E
:104500005F4E554C4C0000001FB504462CB94FF4CB
:10451000C872124912A001F0F7FE206928B940F2D2
:1045200091120E4913A001F0EFFE00BF0820ADF874
:1045300000000020ADF8020006F010FA0190002003
:10454000029000BFE06803901022694620690AF0DB
:104550005BFD208820F0010020801FBD7647010808
:10456000746F7077696E20213D2052545F4E554C18
:104570004C000000746F7077696E2D3E6170702082
:10458000213D2052545F4E554C4C000070B50446FE
:104590000E46A56A0BE015F8200C00F0040000B9E7
:1045A00009E0A5F120003146FFF7F0FF2D6804F186
:1045B00028008542EFD100BFE068F0601822314644
:1045C00020690AF021FD70BD2DE9F04104462CB9A7
:1045D0004FF49672134914A001F096FEA56A04E008
:1045E000A5F12000FFF7F0FF054604F12800854201
:1045F000F6D1266A083803F0A8F809E0206BA0F18C
:104600000807206B00682063384608F047FB00BFAE
:10461000206B0028F2D1204608F040FB3046BDE870
:10462000F081000042470108746F7077696E2021A5
:104630003D2052545F4E554C4C00000070B504466E
:104640002CB94FF44E720D490DA001F05DFE2668A5
:1046500010E0A6F12005287800F0010008B12846F6
:1046600070BD05F12800FFF7E9FF05460DB12846AA
:10467000F6E73668A642ECD10020F1E76048010871
:104680006C69737420213D2052545F4E554C4C0090
:1046900010B50446E06990B91349206A88420CD0ED
:1046A000206A10F8200C00F0040030B1216AA1F15A
:1046B000200000F039F8044614E0002010BDD4E9D1
:1046C0000701283081420CD0206A10F8200C00F03D
:1046D000040030B1216AA1F1200000F025F8044661
:1046E00000E0E4692046E9E74802002070B505468D
:1046F00025B99622064907A001F006FE2C4600E0E7
:10470000E46914B1E0690028FAD1204670BD0000C8
:10471000C8460108746F7077696E20213D2052549D
:104720005F4E554C4C00000010B5044624B9A02241
:104730000A490BA001F0E8FD02E0A06AA0F1200404
:1047400004F1280002F0DDFF30B9A06A10F8200C57
:1047500000F004000028F0D1204610BDE346010817
:10476000746F7077696E20213D2052545F4E554C16
:104770004C0000002DE9F0470546894692469846D0
:104780002DB94FF45572184918A001F0BDFD2E68DF
:1047900024E0A6F12004207800F0040000B91FE016
:1047A00043465246494604F12800FFF7E3FF074617
:1047B00017B13846BDE8F087B8F1000F04D0207873
:1047C00000F0080000B10BE05246494604F1140025
:1047D00009F0C0FA08B92046ECE73668AE42D8D1F5
:1047E00000BF0020E6E70000824801086C6973748E
:1047F00020213D2052545F4E554C4C0002461088FB
:1048000000F4C06001F4C063984201D101207047F8
:104810000020FCE7018821F004010180C168C9691A
:1048200021F00101C268D161704710B504462078BB
:1048300000F0040000B110BD208840F0040020808A
:10484000E068007F00F0010010B9E0680BF06EFF37
:1048500000BFF0E72DE9F04105462DB940F2A11265
:1048600039493AA001F050FD2846FFF73FFF0446C2
:104870002CB940F2A512344939A001F045FD288831
:1048800000F4007088B13C4800682038A84202D18A
:104890000020BDE8F08104F1200002F056FF04F191
:1048A0002001354802F0E9FE4BE0288800F48060E2
:1048B00018B30027304806680BE0A6F120073888B7
:1048C00000F4806018B9387800F0040000B903E003
:1048D000366829488642F0D100BFA6F12000A042E8
:1048E00001D10020D5E704F1200002F02EFF04F1F1
:1048F0002001304602F0D6FE23E000271E4806685D
:104900000BE0A6F12007388800F4007018B1387861
:1049100000F0040000B903E0366817488642F0D181
:1049200000BFA6F12000A04201D10020B1E704F1B0
:10493000200002F00AFF04F12001304602F0B2FE2E
:1049400000BF0120A5E700008F470108746F707752
:10495000696E20213D2052545F4E554C4C000000A2
:10496000746F70706172656E7420213D2052545FC7
:104970004E554C4C00000000480200201FB5044674
:104980002CB940F26F12114911A001F0BDFC207842
:1049900000F0020000B11FBD00BF0720ADF800000D
:1049A0000020ADF8020005F0D9FF01900020029030
:1049B00000BF208840F001002080E06803901022B2
:1049C000694620690AF020FB00BFE4E75A47010866
:1049D000746F7077696E20213D2052545F4E554CA4
:1049E0004C00000070B504460E462CB940F25A2225
:1049F0000C490DA001F088FC2EB940F25B22094958
:104A00000EA001F081FC2046B047A56A05E0A5F1A3
:104A100020003146FFF7E6FF2D6804F128008542AB
:104A2000F5D170BD26480108746F7077696E20213A
:104A30003D2052545F4E554C4C00000066756E632D
:104A400020213D2052545F4E554C4C0070B5044619
:104A50002CB94FF4ED720A490AA001F055FCE06947
:104A600008B90D4D02E0E06900F1280504F12000CD
:104A700002F06BFE04F12001284602F0FEFD70BD3D
:104A8000B1470108746F7077696E20213D20525440
:104A90005F4E554C4C0000004802002070B50446A3
:104AA0002CB94FF4F572074907A001F02DFC204600
:104AB000FFF7D0FE0546E06910B12046FFF7C6FFBC
:104AC000284670BDD0470108746F7077696E202149
:104AD0003D2052545F4E554C4C0000002DE9F041F2
:104AE0000546884616462DB940F2B5321D491EA02E
:104AF00001F00AFCB8F1000F05D140F2B6321949B5
:104B00001DA001F001FC2EB940F2B73215491EA0DC
:104B100001F0FAFB6C6806E014F8200C00F00400C9
:104B200000B102E06468AC42F6D100BF15E0A4F128
:104B3000200707F11401404609F041F930B9F8683F
:104B4000F0601822314638690AF05EFA3246414672
:104B500007F12800FFF7C2FF6468AC42E7D1BDE867
:104B6000F0810000BF4801086C69737420213D206A
:104B700052545F4E554C4C007265637420213D20A9
:104B800052545F4E554C4C00657061696E74202123
:104B90003D2052545F4E554C4C00000070B5044609
:104BA0000E462CB940F21B120B490CA001F0ACFBD5
:104BB000A56A05E0A5F120003146FFF7EFFF2D685B
:104BC00004F128008542F5D104F114023146304643
:104BD0000AF0F0F970BD000022470108746F707789
:104BE000696E20213D2052545F4E554C4C00000010
:104BF00010B5044604B910BD0120E06100BF0020DB
:104C0000A06100BF18480068A06218480168E1620E
:104C100007F08CFF606300212186618600206064BC
:104C200061872187E187A187A4F84200A4F84000AA
:104C300004F1380104F14C0009F093FB00202061DD
:104C40006061A065E06520660949204608F072FDB4
:104C50000020606604F14C0009F068FB204607F074
:104C6000E9F800BFC7E70000B8450108BC450108E6
:104C70001D03010870B5044604B970BD2069E8B190
:104C8000FFF76EFB05462169086829460BF0F3FA29
:104C9000A0B1206900F16C0104F11802084600E09F
:104CA0000068036813B103689342F9D1036813B134
:104CB00003681B68036000BF0020206104F14C0002
:104CC00009F028FB00BFD8E710B504466461002056
:104CD00044F8700F54F8540C40F0100044F8540C91
:104CE0000020606005F03AFE206200206063A0634F
:104CF000E0632064E062206384F82700A062E06142
:104D000054F8540C20F0010044F8540C1820A084EE
:104D1000002084F82600703C0549204608F00AFD72
:104D20000020C4F8B4000348C4F8B80010BD000067
:104D3000610B0108150A010810B586B0044694F805
:104D4000960000F0100038BB00BF0320ADF804004F
:104D50000020ADF8060005F001FE0290002003904F
:104D600000BF606F05900494B4F89400ADF806009D
:104D7000142101A80AF04CFC38B108A0D4F89C100A
:104D800002F026FC002006B010BD94F8960040F01A
:104D9000100084F8960000BF0120F4E7637265619B
:104DA00074652077696E3A202573206661696C65A9
:104DB000640A00002DE9F04104460E461546D4F879
:104DC000AC0048B131462046D4F8AC20904718B921
:104DD00015B90020BDE8F08120460BF0C3FF14F8A0
:104DE000960F40F00200207014F8960900F00100C0
:104DF00018B1012120460BF06FFE54F8900F406D62
:104E0000401E2168486554F89009406D58B9D4F89F
:104E10009000007E00F0800028B905F09FFD074655
:104E2000002105F031FD94F8940000F0200010B14D
:104E300020460BF0B4FD0120CCE71FB5044694F8E2
:104E4000960000F0100098B100BF0420ADF80000FB
:104E50000020ADF8020005F081FD019000200290D5
:104E600000BF0394102168460AF0D2FB00B11FBDB9
:104E7000D4F8A00030B1D4F8A0000BF048FA00201C
:104E8000C4F8A000D4F89C0030B1D4F89C0001F024
:104E9000DBFE0020C4F89C0004F1780009F03AFA27
:104EA0000020206700BFE2E7004870470C4B010874
:104EB00010B504460020E0610821618602492046C1
:104EC00008F038FC10BD0000DD100108704700003C
:104ED00000487047984601082DE9F04704460E4601
:104EE00017464FF0000804B126B9A922154916A0AB
:104EF00001F00AFAE56C25B9AB2212491DA001F0B8
:104F000003FAFBF731F98146286801280AD001200D
:104F10002860206C01233A463146D0F810C0204664
:104F2000E04701E06FF006084846FBF721F9B8F1C9
:104F3000000F02D13846BDE8F087404604F076FA0B
:104F40000020F8E7151B01082873657269616C2061
:104F5000213D2052545F4E554C4C292026262028B6
:104F60006461746120213D2052545F4E554C4C29A0
:104F70000000000072785F646D6120213D20525472
:104F80005F4E554C4C0000002DE9F0470446884622
:104F90001646256D4FF0FF3332464146281D01F07D
:104FA00049FC0746CFB9FBF7DFF88146286801289E
:104FB0000DD0012028604846FBF7DAF8206C022368
:104FC00032464146D0F810C02046E04702E048464D
:104FD000FBF7CEF83046BDE8F087384604F026FAF5
:104FE0000020F8E72DE9F04706460F46154626B99A
:104FF00062221B491B4801F087F9A846F46C24B9CA
:105000006622174918A001F07FF922E0FBF7ACF8FF
:105010008246E088A18888420FD0E188206810F895
:105020000190E088401CE080E188B06CC0F38F20E4
:10503000814206DB0020E08003E05046FBF798F851
:1050400009E05046FBF794F887F800907F1C6D1E2E
:1050500000BF002DDAD100BFA8EB0500BDE8F08746
:10506000F71A01083051000872785F6669666F2090
:10507000213D2052545F4E554C4C00002DE9F0412B
:1050800005460E46144625B98C221149114801F0F7
:105090003BF9A0462F6D27B990220D490EA001F0D3
:1050A00033F90FE03178286C826828469047401C1D
:1050B00028B94FF0FF31384601F0B8F902E0761C0C
:1050C000641E00BF002CEDD1A8EB0400BDE8F08108
:1050D000061B010830510008747820213D205254ED
:1050E0005F4E554C4C0000002DE9F04106460F463E
:1050F000144626B92F220D490DA001F005F9A0464E
:105100000DE0306CC168304688470546681C00B920
:1051100007E03D707F1C641E0A2D00D101E0002CC9
:10512000EFD100BFA8EB0400BDE8F081D71A010859
:1051300073657269616C20213D2052545F4E554C5D
:105140004C0000002DE9F04104460E46154624B9F6
:1051500043220F490F4801F0D7F82F4612E030786C
:105160000A2808D1207E00F0400020B1206C0D21DB
:105170008268204690473178206C826820469047AC
:10518000761C6D1E002DEAD1781BBDE8F081000071
:10519000E71A0108305100082DE9F04704460F4690
:1051A00090464246394604F1380008F004FF04F105
:1051B000380104F14C0009F0D4F8FFF7D1F881462A
:1051C000494620680BF057F858B1E56E07E0A5F1A5
:1051D0001806424639463046FFF7DEFF2D68002D9F
:1051E000F5D1BDE8F08770B504460D46287D00F086
:1051F000200070B1D4F8980058B1D4F8980029462E
:1052000042689047012804D10020C4F8980001208A
:1052100070BD2946204606F084F9F9E77CB50646BC
:10522000184903C9CDE9000117A005F015F9054695
:105230001DB918A002F0CCF97CBD1DA002F0C8F980
:1052400018236A4610A100200BF088FB044634B9ED
:105250001EA002F0BDF9284605F08EF9ECE700210A
:1052600020460BF0D6FE284605F018FB20460BF032
:1052700096FB284605F080F91BA002F0A9F900BFB3
:10528000DAE70000C41401086775695F64656D6F33
:10529000000000007274677569206170702063728D
:1052A00065617465206572726F72210A00000000EA
:1052B00072746775692061707020637265617465CE
:1052C0002073756363657373210A0000437265611F
:1052D0007465206D61696E2077696E646F772066F2
:1052E00061696C6564210A006775695F64656D6F4B
:1052F00020717569742E0A001CB50D480068B0B99C
:105300000A2019214FF480530022CDE900100949E9
:1053100009A004F099FA04462CB108A002F058F94B
:10532000204604F019FC01200149086000BF1CBDA3
:10533000040000201D52000877620000776220748C
:10534000687265616420696E697420737563636552
:105350007373210A0000000004460D4606A002F007
:1053600037F921460EA002F033F9294611A002F0C8
:105370002FF900BFFEE700000A0D2057726F6E671D
:1053800020706172616D657465722076616C7565FF
:10539000206465746563746564206F6E0D0A000097
:1053A0002020202020202066696C65202025730D98
:1053B0000A000000202020202020206C696E65203B
:1053C0002025640D0A00000008B509E000210091C5
:1053D00002E00099491C00910099B1F5FA7FF8D3D9
:1053E0000100A0F10100F1D108BD2DE9F04706460A
:1053F0000D461746984607F0AFFC04466288A16840
:1054000008FB02126178C81DC11700EB5171C91069
:1054100005FB012A607800F107094FEAE97009EB02
:105420005070C010791B00FB01F23146504602F06B
:1054300045FDBDE8F087000010B502A002F0C8F8F5
:10544000002010BD48656C6C6F2052542D5468725A
:10545000656164210A00000070B500F017FD0024AA
:10546000002520460CF01BF800BF4FF0D8404088C4
:10547000054600BFFE480580008844F2315188424D
:1054800029D0FB48008847F28371884223D0F8482E
:10549000008849F2203188421DD0F5480088491D16
:1054A000884218D0F2480088C91C884213D0F048BE
:1054B0000088B0F5134F0ED0ED48008841F2055139
:1054C000884208D0EA480188EAA002F081F8EFA0FB
:1054D00002F07EF870BDE6480188F7A002F078F887
:1054E000E348008849F22531884204D0E04800882A
:1054F000C91C88427DD11021E7200BF0D8FF012183
:1055000000200BF0D4FF4FF4807101200BF0CFFF8F
:105510004FF4E06102200BF0CAFF41F228010320A2
:105520000BF0C5FF002104200BF0C1FF40F2072162
:1055300008200BF0BCFF002109200BF0B8FF002170
:105540000A200BF0B4FF01210C200BF0B0FF00216A
:105550000D200BF0ACFF00210F200BF0A8FF002165
:1055600010200BF0A4FF072111200BF0A0FF002159
:1055700012200BF09CFF002113200BF098FF0F204E
:10558000FFF722FF41F2905110200BF090FF40F204
:10559000272111200BF08BFF0F20FFF715FF9C2117
:1055A00012200BF084FF0F20FFF70EFF4FF4C851BD
:1055B00013200BF07CFF232129200BF078FF0E2114
:1055C0002B200BF074FF0F20FFF7FEFE00212020A0
:1055D0000BF06DFF002121200BF069FF0F20FFF77A
:1055E000F3FE072130200BF062FF40F207713120FB
:1055F00000E085E00BF05BFF062132200BF057FF47
:1056000040F2047135200BF052FF41F60471362050
:105610000BF04DFF042137200BF049FF002138200B
:105620000BF045FF40F2067139200BF040FF40F2CD
:1056300001713C200BF03BFF0F213D200BF037FFA9
:105640000F20FFF7C1FE002150200BF030FFEF21AB
:1056500051200BF02CFF002152200BF028FF40F2CC
:105660003F1153200BF023FF4FF4274160200BF034
:105670001EFF012161200BF01AFF00216A200BF0B0
:1056800016FF002180200BF012FF002181200BF07B
:105690000EFF002182200BF00AFF002183200BF077
:1056A00006FF002184200BF002FF002185200BF073
:1056B000FEFE102190200BF0FAFE002192200BF04C
:1056C000F6FE032193200BF0F2FE4FF48871952033
:1056D0000BF0EDFE002197200BF0E9FE0021982051
:1056E0000BF0E5FE40F2331107200BF0E0FE002145
:1056F00020200BF0DCFE002121200BF0D8FE68E317
:105700005B48008849F22031884204D0584800881C
:10571000B0F5134F7ED1002108460BF0C8FE0021E2
:1057200001200BF0C4FE4FF4E06102200BF0BFFE3D
:1057300041F2180103200BF0BAFE002104200BF007
:10574000B6FE40F2022108200BF0B1FE0021092034
:105750000BF0ADFE00210A200BF0A9FE01210C2068
:105760000BF0A5FE00210D200BF0A1FE00210F2063
:105770000BF09DFE0F20FFF727FE40F201110720DE
:105780000BF095FE0F20FFF71FFE4FF486511020FF
:105790000BF08DFE072111200BF089FE4FF488716C
:1057A00012200BF084FE4FF4306113200BF07FFECB
:1057B000002129200BF07BFE44F210012B200BF07E
:1057C00076FE002150200BF072FEEF2151200BF0ED
:1057D0006EFE002152200BF06AFE40F23F11532072
:1057E0000BF065FE4FF4274160200BF060FE0121B5
:1057F00061200BF05CFE00216A200BF058FE0021B6
:1058000080200BF054FE002181200BF050FE00217F
:10581000822000E05CE00BF04AFE002183200BF0C8
:1058200046FE002184200BF042FE002185200BF073
:105830003EFE102190200BF03AFE002192200BF04A
:1058400036FE012193200BF032FE4FF48871952033
:105850000BF02DFE002197200BF029FE002198204F
:105860000BF025FE40F2731107200BF020FEB0E292
:1058700020000020496E76616C6964204C4344200E
:1058800049443A253038580D0A000000506C6561D3
:10589000736520636865636B20796F75206861723A
:1058A000647761726520616E6420636F6E666967FC
:1058B0007572652E000000000D0A4C4344204465BB
:1058C00076696365204944203A2025303458200009
:1058D000FE48008844F2315188427DD101210020E8
:1058E0000BF0E5FD4FF4C56110200BF0E0FD062143
:1058F00012200BF0DCFD40F6322113200BF0D7FD17
:10590000402111200BF0D3FD502115200BF0CFFDCD
:10591000162112200BF0CBFD0F20FFF755FD45F2AD
:10592000606110200BF0C3FD0F20FFF74DFD42F624
:105930004E2113200BF0BBFD002101200BF0B7FD21
:105940004FF4407102200BF0B2FD41F23001032010
:105950000BF0ADFD40F2022108200BF0A8FD002164
:105960000A200BF0A4FD002130200BF0A0FD40F236
:10597000024131200BF09BFD4FF4837132200BF07C
:1059800096FD4FF4E06133200BF091FD4FF48271EE
:1059900034200BF08CFD40F2013135200BF087FDF7
:1059A00040F2077136200BF082FD40F205313720BE
:1059B0000BF07DFD4FF4027138200BF078FD40F6BE
:1059C0000B7139200BF073FD0F20FFF7FDFC022156
:1059D00041200BF06CFD00E037E04FF427416020E0
:1059E0000BF065FD012161200BF061FD40F2191102
:1059F00090200BF05CFD4FF4857192200BF057FD69
:105A0000042193200BF053FD4FF48071A0200BF084
:105A10004EFD0F20FFF7D8FC0F20FFF7D5FC0F201D
:105A2000FFF7D2FC0F20FFF7CFFC40F23311072025
:105A30000BF03DFD0F20FFF7C7FC0021A0200BF06D
:105A400036FD1420FFF7C0FCC3E1A048008847F2F0
:105A5000837188427ED10121FF200BF028FD0821AF
:105A6000F3200BF024FD4FF4807101200BF01FFD9B
:105A70004FF4E06102200BF01AFD41F230010320E7
:105A80000BF015FD40F2023108200BF010FD40F242
:105A9000072108200BF00BFD002109200BF007FD6A
:105AA00000210A200BF003FD002110200BF0FFFC69
:105AB000052111200BF0FBFC002112200BF0F7FC5C
:105AC000002113200BF0F3FC1420FFF77DFC41F2C2
:105AD000B02110200BF0EBFC1420FFF775FC072120
