:020000040800F2
:10000000301B002045010008191900080D020008E6
:100010001519000875130008F538000800000000E5
:10002000000000000000000000000000552F000844
:100030007913000800000000970100084130000813
:100040005F0100085F0100085F0100085F01000810
:100050005F0100085F0100085F0100087D130008D0
:100060005F0100085F0100085F0100085F010008F0
:100070005F0100085F0100085F0100085F010008E0
:100080005F0100085F0100085F0100085F010008D0
:100090005F0100085F0100085F0100085F010008C0
:1000A0005F0100085F0100085F0100085F010008B0
:1000B0005F0100085F0100085F0100085F010008A0
:1000C0005F0100085F0100085F0100085F01000890
:1000D0005F010008B13000080D31000869310008E7
:1000E0005F0100085F0100085F0100085F01000870
:1000F0005F0100085F0100085F0100085F01000860
:100100005F0100085F0100085F0100085F0100084F
:100110005F0100085F0100085F0100085F0100083F
:100120005F0100085F0100085F0100085F0100082F
:10013000DFF80CD000F0D2F90048004731D70008B2
:10014000301B00200648804706480047FEE7FEE7D0
:10015000FEE7FEE7FEE7FEE7FEE7FEE7FEE7FEE777
:100160005130000831010008EFF3108072B670477B
:1001700080F310887047314A1368012B04D04FF088
:10018000010313602E4A10602E4A11602E484FF072
:10019000805101607047EFF3108272B62748016802
:1001A00091B14FF0000101602548016829B1EFF3DA
:1001B000098121E9F00F0068016022490968096896
:1001C000B1E8F00F81F3098882F310884EF0040E35
:1001D00070471C4908601A494FF000000860174931
:1001E0004FF00100086019484FF47F01D0F800205B
:1001F00041EA0201016014484FF080510160144847
:100200000068006880F3088862B670471EF0040F2B
:1002100014BFEFF30880EFF3098020E9F00F40F8F6
:1002200004ED14BF80F3088880F3098800B50FF04F
:100230006DF85DF804EB4EF0040E70477C01002071
:10024000740100207801002004ED00E020ED00E0C2
:1002500008ED00E038B5D0E90221491E01EB41016B
:1002600002EBC1014268C1EB011102EB810102689E
:10027000C1EB011102EB8102D0E9043101EB410134
:1002800003EB81013023A1F5527191FBF3F4174D7B
:100290006C4302EBC41291FBF3F403FB14110092C4
:1002A0001A2902DB124B1A4400920C2291FBF2F342
:1002B000104C6343009C04EBC313009391FBF2F3D7
:1002C00002FB13110C4A08E0491E40F2A324535CC0
:1002D0006343009C04EBC31300930029F4DC014644
:1002E000684600F07DF8009838BD00003F0C0F0014
:1002F0008051010067C2030068E9010840EA010378
:100300009B0703D009E008C9121F08C0042AFAD2CB
:1003100003E011F8013B00F8013B521EF9D270478F
:10032000D2B201E000F8012B491EFBD27047002237
:10033000F6E710B513460A4604461946FFF7F0FFE4
:10034000204610BD10B5044604E00B7800F8013BD0
:1003500003B1491C521EF8D2204610BD421C10F8B1
:10036000011B0029FBD1801A704710B5002200E064
:10037000521C835C8C5CA34201D1002BF8D1D8B213
:10038000E1B2401A10BD30B505460020034600E03A
:100390005B1C934205D2EC5CC85C201A01D1002C96
:1003A000F6D130BD0246C9B200E0401C0378002BF4
:1003B000FBD102E003788B4203D0401E9042F9D279
:1003C0000020704770B5064603F096FA04680546AB
:1003D0000A220021304600F049F82C6070BD000070
:1003E00010B500683C22B0FBF2F302FB1303B0FB34
:1003F000F2F00B60B0FBF2F302FB1303B0FBF2F080
:1004000018224B60B0FBF2F302FB1303B0FBF2F0D7
:10041000021D8B600723B2FBF3F403FB1422800060
:1004200040F2B55300F66C308A61B0FBF3F2B0FBDA
:10043000F3F403FB1400443280084A61C8613B288E
:1004400002D3920700D0401C0022074C13460A61D9
:10045000E25C824203D8801A5B1C0B61F8E7401C07
:10046000C860084610BD000074E901082DE9F04796
:1004700091460F4680460446002614F8015B2DB1D4
:1004800000F03EF80068405DC007F6D12B2D02D089
:100490002D2D18D0641E4A463946204600F034F807
:1004A00027B13968A14201D1C7F8008071054FF02A
:1004B00002040BD54042002803DD03F01DFA04605E
:1004C000A007BDE8F08746F48066E4E70028F8DA84
:1004D00003F012FA04606FF00040F2E7064C074D9B
:1004E00006E0E06840F0010394E807009847103404
:1004F000AC42F6D3FFF720FE34F5010854F50108AD
:100500000048704704EA01082DE9F05F8246007850
:10051000002715468B460AF10104B946302801D060
:100520009DB113E014F8010B0127782803D0582857
:1005300001D045B10AE00DB1102D07D100271025DB
:1005400014F8010B02E0082500E00A250026B04659
:100550000EE005FB080005FB06F1012701EB104644
:100560001FFA80F8B6F5803F00D3B94614F8010BA6
:10057000294600F018F80028EBDABBF1000F05D08F
:100580000FB1641E00E05446CBF80040B9F1000FF3
:1005900006D003F0B1F902210160C81EBDE8F09F4A
:1005A00048EA0640FAE73A2800D2303820F0200224
:1005B000412A01D3A2F13700884201D34FF0FF3026
:1005C000704770B58C1810F8015B15F0070301D166
:1005D00010F8013B2A1106D110F8012B03E010F8A6
:1005E000016B01F8016B5B1EF9D12B0705D40023C9
:1005F000521E0DD401F8013BFAE710F8013BCB1A6B
:10060000921C03E013F8015B01F8015B521EF9D55F
:10061000A142D8D3002070BD2DE9FC4F03469E694E
:10062000DC6901941A681C69671058695C6A641077
:100630000094B7E082EA000404F00204002C60D0C9
:10064000344600F0020CBCF1000F14D0B0F800C02A
:10065000B2F8008008EA01090CEA010ACA4408EA73
:100660000C0929EA010909EB6A09A0F80090801C2D
:10067000921C641E00BF921C52F8045C21E0D2F868
:1006800000C0D0F800804FEA154A0AEB0C496546D5
:1006900041EA014A0AEA090A4FEA5A0B41EA014AC9
:1006A0000AEA080A0BEB5A0B09EA080A41EA014E6A
:1006B0002AEA0E0ADA44C0F800A0001D121DA41E8A
:1006C00000BF012CDBDC9CB1B0F800C04FEA15483C
:1006D00008EA01090CEA010ACA4408EA0C0929EAF5
:1006E000010909EB6A09A0F80090921C801C00BF68
:1006F000A7F1010C02EB4C02DDF800C000EB4C004E
:1007000050E0344602F002059DB10588B2F800C001
:100710000CEA010805EA0109C1440CEA050828EAC7
:10072000010808EB6908A0F80080921C801C641E78
:1007300000BF1BE01568D0F800C041EA014808EA94
:1007400005084FEA580941EA014808EA0C0809EB94
:10075000580905EA0C0841EA014A28EA0A08C8448F
:10076000C0F80080121D001DA41E00BF012CE1DC9A
:1007700094B10588B2F800C00CEA010805EA010945
:10078000C1440CEA050828EA010808EB6908A0F84A
:100790000080921C801C00BF02EB4702009D00EB12
:1007A000450000BF019C651E0195002C7FF442AFFF
:1007B000BDE8FC8F2DE9F05F044694F82D50802DA4
:1007C00006D14FF2DE712046FFF726FFBDE8F09F0D
:1007D000FF2D18D1A0694600D4F81C902768D4F8E2
:1007E00014800AE03246394640460FF0DBFD606A6D
:1007F000304480442069304407445FEA0900A9F18D
:100800000109EFD1E2E7ED0805B9DFE7A26902EBE4
:10081000D2735E10E7692168606901E1F21CD317A9
:1008200002EB93734FEAA30C06F0030232B1012AE4
:100830007DD0022A63D0032A7AD130E000BF51F87C
:10084000048B02684FEA084A4AEA18494FEA024A0A
:100850004AEA1243DFF8D8A108EA0A0802EA0A02C3
:1008600009EA0A0903EA0A03A9EB030A0AFB05FAE3
:1008700003EB5A1ADFF8B8B10AEA0B03A8EB020A35
:100880000AFB05FA02EB5A1A0AEA0B024FEA034A7C
:100890004AEA134A4AEA020A40F804AB00BF51F898
:1008A000048B02684FEA084A4AEA18494FEA024AAA
:1008B0004AEA1243DFF878A108EA0A0802EA0A02C3
:1008C00009EA0A0903EA0A03A9EB030A0AFB05FA83
:1008D00003EB5A1ADFF858B10AEA0B03A8EB020A35
:1008E0000AFB05FA02EB5A1A0AEA0B024FEA034A1C
:1008F0004AEA134A4AEA020A40F804AB00BF51F838
:10090000048B02684FEA084A4AEA18494FEA024A49
:100910004AEA1243DFF818A108EA0A0802EA0A02C2
:1009200009EA0A0903EA0A03A9EB030A01E019E04C
:100930004EE00AFB05FA03EB5A1ADFF8F4B00AEAB4
:100940000B03A8EB020A0AFB05FA02EB5A1A0AEAA1
:100950000B024FEA034A4AEA134A4AEA020A40F8FB
:1009600004AB00BF51F8048B02684FEA084A4AEA18
:1009700018494FEA024A4AEA1243DFF8B4A008EAEB
:100980000A0802EA0A0209EA0A0903EA0A03A9EBC9
:10099000030A0AFB05FA03EB5A1ADFF894B00AEAD5
:1009A0000B03A8EB020A0AFB05FA02EB5A1A0AEA41
:1009B0000B024FEA034A4AEA134A4AEA020A40F89B
:1009C00004ABACF10102B2F1000C3FF738AF00BF4D
:1009D00000BFA26902EBD2735B10A2EB4303DBB151
:1009E0000B88028843EA034CDFF844800CEA0803D2
:1009F00042EA024C0CEA0802A3EB020C0CFB05FCD9
:100A000002EB5C12C44602EA0C0242EA124CA0F865
:100A100000C0891C801C00BF22691144626A104416
:100A20003A00A7F101077FF4F9AE00BFCEE600005F
:100A30001FF8E0072DE9FC4F67E0D0F800A04469FB
:100A4000D0F818B0CDF800B047E0DAF80020110E69
:100A5000C2F30745C2F30726D7B223684FEA136BE8
:100A6000CDF804B0C3F3074CC3F3072803F0FF0924
:100A7000C1F1FF0B0BFB0CFB4FF0FF0EBBFBFEFBB2
:100A80000BEB050CC1F1FF0B0BFB08FBBBFBFEFBEB
:100A90000BEB0608C1F1FF0B0BFB09FBBBFBFEFBDD
:100AA0000BEB0709C1F1FF0BDDF804E00BFB0EFBBC
:100AB0004FF0FF0EBBFBFEFB8B44CDF804B0DDF81E
:100AC00004B04FEA0B6B4BEA0C4B4BEA082B4BEA9A
:100AD000090323600AF1040A241DDDF800B0ABF11C
:100AE000010ECDF800E0BBF1000FAED1D0F80CE064
:100AF000D0F800B0F344C0F800B0D0F820E0D0F84F
:100B000014B0F344C0F814B000BFD0F81CA0AAF190
:100B10000104C461BAF1000F8FD1BDE8FC8F000061
:100B20002DE9F04F03469D69DE6919681A6997102F
:100B300058695A6A4FEA620C0AE1EA1CD41702EBC0
:100B400094744FEAA40805F0030232B1012A7DD063
:100B5000022A79D0032A7AD13BE000BF0A684FEA23
:100B6000D269B9F1000F31D0B9F11F0F0DD14FF497
:100B7000784404EA12244FF4FC6A0AEA521A5444F4
:100B8000C2F3C40A5444048020E004884FF4784A35
:100B90000AEA122A02F47C4B0AEBCB2AC2F3C40BFA
:100BA0000AEB0B0244EA044ADFF8B4B10AEA0B0488
:100BB000A2EB040A0AFB09FA04EB5A14DA4604EA27
:100BC0000A0444EA144AA0F800A000BF091D801CD2
:100BD00000BF0A684FEAD269B9F1000F31D0B9F10C
:100BE0001F0F0DD14FF4784404EA12244FF4FC6A2D
:100BF0000AEA521A5444C2F3C40A5444048020E05E
:100C000004884FF4784A0AEA122A02F47C4B0AEB71
:100C1000CB2AC2F3C40B0AEB0B0244EA044ADFF806
:100C200040B10AEA0B04A2EB040A0AFB09FA04EB3E
:100C30005A14DA4604EA0A0444EA144AA0F800A066
:100C400000BF091D801C00BF0A6801E03AE07AE09D
:100C50004FEAD269B9F1000F31D0B9F11F0F0DD1B0
:100C60004FF4784404EA12244FF4FC6A0AEA521A58
:100C70005444C2F3C40A5444048020E004884FF46E
:100C8000784A0AEA122A02F47C4B0AEBCB2AC2F316
:100C9000C40B0AEB0B0244EA044ADFF8C4B00AEAC8
:100CA0000B04A2EB040A0AFB09FA04EB5A14DA4615
:100CB00004EA0A0444EA144AA0F800A000BF091D8F
:100CC000801C00BF0A684FEAD269B9F1000F31D029
:100CD000B9F11F0F0DD14FF4784404EA12244FF4F8
:100CE000FC6A0AEA521A5444C2F3C40A5444048007
:100CF00020E004884FF4784A0AEA122A02F47C4B76
:100D00000AEBCB2AC2F3C40B0AEB0B0244EA044AF7
:100D1000DFF84CB00AEA0B04A2EB040A0AFB09FA5A
:100D200004EB5A14DA4604EA0A0444EA144AA0F826
:100D300000A000BF091D801CA8F10102B2F100084B
:100D40003FF70CAF00BF00BF01EB870100EB4C0089
:100D50003200A6F101067FF4F0AEBDE8F08F00008E
:100D60001FF8E0072DE9F04703469C69DF69186822
:100D7000D3F810C05A695D6A4FEAE57805EB9878B8
:100D80004FEAA80694E0E51D4FEAE57905EB5979AD
:100D90004FEAE90804F00705082D7DD2DFE805F0E9
:100DA000046E5F504132231400BF05786D0051F886
:100DB000259045784FF0010A0AEB450551F825507A
:100DC0004D4420C2801C00BF05786D0051F825906D
:100DD00045784FF0010A0AEB450551F825504D447E
:100DE00020C2801C00BF05786D0051F82590457821
:100DF0004FF0010A0AEB450551F825504D4420C239
:100E0000801C00BF05786D0051F8259045784FF0A3
:100E1000010A0AEB450551F825504D4420C2801CBB
:100E200000BF05786D0051F8259045784FF0010A14
:100E30000AEB450551F825504D4420C2801C00BFE7
:100E400005786D0051F8259045784FF0010A0AEBBE
:100E5000450551F825504D4420C2801C00BF05783F
:100E60006D0051F8259045784FF0010A0AEB4505D1
:100E700051F825504D4420C2801C00BF05786D00FC
:100E800051F8259045784FF0010A0AEB450551F8D5
:100E900025504D4420C200E006E0801CA8F1010569
:100EA000B5F1000881DC00BF00BF604402EB8602A0
:100EB0003D00A7F101077FF466AFBDE8F0870000B1
:100EC00010B5044602492046FFF74CFF10BD000054
:100ED000D8D001082DE9F84F02469569D669116806
:100EE00013694FEAA30E5069536A9B100093DFE029
:100EF000EB1CDC1703EB9474A71005F0030333B16C
:100F0000012B74D0022B65D0032B71D131E000BFCF
:100F10000C684FEA1468B8F1FF0F06D1D0F800B0A2
:100F200064F3170BC0F800B020E0036803F07F49BA
:100F300004F0FF1A03F0FF1CAAEB0C0B0BFB08FBE1
:100F40000CEB1B2B0BF0FF1C04F47F4403F47F43DA
:100F5000A4EB030B0BFB08FB03EB1B2B0BF47F43F6
:100F60004CEA030B4BEA090BC0F800B0091D001D49
:100F700000BF0C684FEA1468B8F1FF0F06D1D0F833
:100F800000B064F3170BC0F800B020E0036803F072
:100F90007F4904F0FF1A03F0FF1CAAEB0C0B0BFBBC
:100FA00008FB0CEB1B2B0BF0FF1C04F47F4403F439
:100FB0007F43A4EB030B0BFB08FB03EB1B2B0BF496
:100FC0007F434CEA030B4BEA090BC0F800B0091D44
:100FD000001D00BF0C684FEA1468B8F1FF0F08D17C
:100FE000D0F800B064F3170BC0F800B022E024E0A2
:100FF00058E0036803F07F4904F0FF1A03F0FF1C78
:10100000AAEB0C0B0BFB08FB0CEB1B2B0BF0FF1CD8
:1010100004F47F4403F47F43A4EB030B0BFB08FBB6
:1010200003EB1B2B0BF47F434CEA030B4BEA090B3E
:10103000C0F800B0091D001D00BF0C684FEA14681D
:10104000B8F1FF0F06D1D0F800B064F3170BC0F869
:1010500000B020E0036803F07F4904F0FF1A03F0BA
:10106000FF1CAAEB0C0B0BFB08FB0CEB1B2B0BF078
:10107000FF1C04F47F4403F47F43A4EB030B0BFB3E
:1010800008FB03EB1B2B0BF47F434CEA030B4BEAEF
:10109000090BC0F800B0091D001D7B1E1F1E3FF785
:1010A00037AF00BF00BF01EB8E01009B00EB830058
:1010B0003300A6F101067FF41BAFBDE8F88F2DE9E0
:1010C000F05F054695F82D40802C03D1284600F0AE
:1010D000BFF8BAE0AE69EF6929682A694FEAA20C45
:1010E00068696A6A4FEAA208A9E0F21CD31702EB0A
:1010F00093734FEAA30906F0030232B1012A6ED0BE
:10110000022A49D0032A7DD123E000BF0B68026880
:1011100003F0FF1B02F0FF1AABEB0A0E0EFB04FEFE
:101120000AEB1E2E0EF0FF1A03F47F4302F47F42F7
:10113000A3EB020E0EFB04FE02EB1E2E0EF47F420A
:101140004AEA020E4EF07F4EC0F800E0091D001D75
:1011500000BF0B68026803F0FF1B02F0FF1AABEB45
:101160000A0E0EFB04FE0AEB1E2E0EF0FF1A03F40D
:101170007F4302F47F42A3EB020E0EFB04FE02EB60
:101180001E2E0EF47F424AEA020E4EF07F4EC0F849
:1011900000E0091D001D00BF0B68026803F0FF1B83
:1011A00002F0FF1AABEB0A0E0EFB04FE0AEB1E2E3A
:1011B0000EF0FF1A03F47F4302F47F42A3EB020E0A
:1011C0000EFB04FE02EB1E2E0EF47F424AEA020ED4
:1011D0004EF07F4EC0F800E0091D001D00BF0B68F7
:1011E000026803F0FF1B02F0FF1AABEB0A0E0EFBC6
:1011F00004FE0AEB1E2E0EF0FF1A03F47F4302F4E6
:101200007F4200E016E0A3EB020E0EFB04FE02EBB1
:101210001E2E0EF47F424AEA020E4EF07F4EC0F8B8
:1012200000E0091D001DA9F10102B2F100093FF71C
:101230006DAF00BF00BF01EB8C0100EB88003A00EE
:10124000A7F101077FF451AF00BFBDE8F09F000098
:101250002DE9F04F02469369D66911681469A71009
:101260005069546A4FEAA40C7AE0DC1CE51704EBE1
:1012700095754FEAA50803F0030434B1012C4DD055
:10128000022C33D0032C66D118E000BF10C90568CA
:10129000DFF8D89004EA0909DFF8D0A005EA0A0AC5
:1012A000CA4404EA0509DFF8C8B009EA0B0909EBEA
:1012B0005A0949F07F4940F8049B00BF10C90568EE
:1012C000DFF8A89004EA0909DFF8A0A005EA0A0AF5
:1012D000CA4404EA0509DFF898B009EA0B0909EBEA
:1012E0005A0949F07F4940F8049B00BF10C90568BE
:1012F000DFF8789004EA0909DFF870A005EA0A0A25
:10130000CA4404EA0509DFF868B009EA0B0909EBE9
:101310005A0949F07F4940F8049B00BF10C905688D
:10132000DFF8489004EA0909DFF840A005EA0A0A54
:10133000CA4404EA0509DFF838B009EA0B0909EBE9
:101340005A0949F07F4940F8049BA8F10104B4F11F
:1013500000089BDC00BF00BF01EB870100EB8C00A5
:101360003400A6F1010680D1BDE8F08FFEFEFE003C
:101370000101010000BFFEE77047000010B500202A
:1013800000F03AF804490968086C11F015FB0220D6
:1013900000F004F810BD00002400002010B5044641
:1013A000200D000508B904B103E0FC2102A005F0FE
:1013B0007FF91048046010BD4C6962726172696502
:1013C000735C53544D3332463130785F53746450FC
:1013D00065726970685F4472697665725C73726386
:1013E0005C73746D3332663130785F657874692E62
:1013F00063000000140401401CB504460220009064
:1014000000208DF804000C208DF805001CB101208F
:101410008DF8060002E000208DF80600684600F016
:1014200005F80220FFF7BAFF1CBD000070B50446A6
:101430000025207910B12079042800D103E06A2129
:1014400035A005F035F96079082805D060790C28B9
:1014500002D06079102800D103E06B212EA005F0A6
:1014600027F920686FF3130010B9206800B103E07A
:101470006C2129A005F01CF9A07910B1A0790128F0
:1014800000D103E06D2124A005F012F9314DA079BF
:1014900090B3284600682168884329460860081DE3
:1014A000006821688843291D086020790544286860
:1014B000216808432860274808300068216888436D
:1014C000244908310860081D0068216888432149C3
:1014D0000C310860607910280FD1081F006821685E
:1014E00008431C4908310860081D0068216808434A
:1014F00018490C3108600EE007E0164D607905448C
:10150000286821680843286005E020790544286898
:1015100021688843286070BD4C6962726172696598
:10152000735C53544D3332463130785F537464509A
:1015300065726970685F4472697665725C73726324
:101540005C73746D3332663130785F657874692E00
:10155000630000000004014008B502208DF802007D
:1015600004208DF803000002ADF8000069461C4815
:1015700000F03AF818208DF803004FF40070ADF831
:1015800000006946164800F02FF804208DF803008B
:101590000820ADF800006946114800F025F8182031
:1015A0008DF803000420ADF8000069460C4800F0F7
:1015B0001BF804208DF803004002ADF800006946D6
:1015C000084800F011F818208DF803004FF48060EF
:1015D000ADF800006946034800F006F808BD0000B9
:1015E00000080140000C01402DE9F05F05460C4663
:1015F0004FF00009CA4600260027B046B3465948B6
:10160000854211D0584885420ED0584885420BD0AB
:101610005748854208D05748854205D056488542EC
:1016200002D05648854200D103E0B22154A005F013
:101630003FF8E078A0B1E078042811D0E0782828BD
:101640000ED0E07848280BD0E078142808D0E07855
:10165000102805D0E0781C2802D0E078182800D1A6
:1016600003E0B32146A005F023F8002010B920883C
:1016700000B103E0B42142A005F01AF8E07800F0D0
:101680000F09E07800F0100080B1A078012805D0A3
:10169000A078022802D0A078032800D103E0BB2163
:1016A00037A005F005F8A07840EA0909207838B39A
:1016B000D5F8008000261FE0012000FA06F72088F8
:1016C00000EA070ABA4516D1B7000F2000FA07FB57
:1016D00028EA0B0809FA07F040EA0808E078282809
:1016E00003D10120B040686105E0E078482802D1CC
:1016F0000120B0402861761C082EDDD3C5F800809B
:101700002088FF282BDDD5F80480002623E006F191
:101710000800012101FA00F7208800EA070ABA450B
:1017200018D1B7000F2000FA07FB28EA0B0809FAC6
:1017300007F040EA0808E078282803D106F10800FD
:1017400081406961E078482804D106F10800012150
:1017500081402961761C082ED9D3C5F80480BDE8E4
:10176000F09F000000080140000C01400010014003
:101770000014014000180140001C014000200140FD
:101780004C69627261726965735C53544D333246C1
:101790003130785F5374645065726970685F447269
:1017A000697665725C7372635C73746D3332663133
:1017B00030785F6770696F2E6300000070B5044673
:1017C0000D461348844211D0124884420ED012486C
:1017D00084420BD01148844208D01148844205D07D
:1017E0001048844202D01048844200D104E040F204
:1017F00079110EA004F05CFF002008B905B104E0E7
:101800004FF4BD7109A004F053FF656170BD000085
:1018100000080140000C014000100140001401408C
:1018200000180140001C0140002001404C69627218
:1018300061726965735C53544D3332463130785F61
:101840005374645065726970685F4472697665723A
:101850005C7372635C73746D3332663130785F67CA
:1018600070696F2E6300000070B504460D46134882
:10187000844211D0124884420ED0124884420BD0C8
:101880001148844208D01148844205D0104884424F
:1018900002D01048844200D104E040F269110EA049
:1018A00004F006FF002008B905B104E04FF4B5715B
:1018B00009A004F0FDFE256170BD00000008014094
:1018C000000C0140001001400014014000180140CC
:1018D000001C0140002001404C6962726172696520
:1018E000735C53544D3332463130785F53746450D7
:1018F00065726970685F4472697665725C73726361
:101900005C73746D3332663130785F6770696F2E47
:101910006300000000BFFEE7704710B500214FF0E4
:10192000006000F081F810BD38B5044620798DF8CC
:10193000000000208DF801008DF8020001208DF8D4
:101940000300684600F002F838BD00002DE9F041C0
:101950000446002500270F26E07810B1E078012822
:1019600000D103E0752121A004F0A2FE60781028C8
:1019700000DA03E076211DA004F09AFEA07810287A
:1019800000DA03E0772119A004F092FEE07800B3BA
:101990002248006800F4E060C0F5E060050AC5F187
:1019A0000407EE40607800FA07F5A0783040054360
:1019B0002D011B4822788554207800F01F0101205A
:1019C000884021784911890001F1E021C1F8000126
:1019D00009E0207800F01F01012088401149227899
:1019E000521141F82200BDE8F08100004C6962729A
:1019F00061726965735C53544D3332463130785FA0
:101A00005374645065726970685F44726976657278
:101A10005C7372635C6D6973632E63000CED00E0B0
:101A200000E400E080E100E070B504460D46B4F14A
:101A3000005F02D0B4F1006F00D103E09F2109A044
:101A400004F036FE1348854200D203E0A02105A031
:101A500004F02EFE104905EA010020430F490860FA
:101A600070BD00004C69627261726965735C5354A9
:101A70004D3332463130785F53746450657269700B
:101A8000685F4472697665725C7372635C6D6973DA
:101A9000632E6300FFFF0F0080FFFF1F08ED00E0D3
:101AA00000BF0A48006810F8080C0849096811F8D6
:101AB000041C08440549096801F8080C034800683B
:101AC000001F0249086000BF7047000000020020AC
:101AD00000BF0A48006850F8080C0849096851F826
:101AE000041C08440549096841F8080C03480068CB
:101AF000001F0249086000BF70470000000200207C
:101B000000BF0A48006830F8080C0849096831F835
:101B1000041C084400B20549096821F8080C034870
:101B20000068001F0149086000BF704700020020E4
:101B300000BF0A48006810F8080C0849096811F845
:101B4000041C08400549096801F8080C03480068AE
:101B5000001F0249086000BF70470000000200201B
:101B600000BF0A48006850F8080C0849096851F895
:101B7000041C08400549096841F8080C034800683E
:101B8000001F0249086000BF7047000000020020EB
:101B900000BF0A48006830F9080C0849096831F9A3
:101BA000041C08400549096821F8080C034800682E
:101BB000001F0249086000BF7047000000020020BB
:101BC0000448006810F8040CC0430249096801F891
:101BD000040C7047000200200448006850F8040C10
:101BE000C0430249096841F8040C70470002002014
:101BF0000448006830F9040CC0430249096821F820
:101C0000040C70470002002010B5A4B0DF48006843
:101C100000781390DD480068401CDC490860002013
:101C20001290DB480068001FD949086011E0D848CD
:101C3000006802681398401E1299401A14A941F8CE
:101C40002020D3480068001FD14908601298401C2A
:101C50001290DDE912018842E9D3CD48006800689E
:101C60001190139811286ED2DFE800F0090E141DB0
:101C7000293747596E849CB6D2F4F2F1F000002067
:101C800011998847109074E114980F901199884722
:101C900010906EE115980F9014980E90119A0F996C
:101CA0009047109065E116980F9015980E90149833
:101CB0000D90119BDDE90E129847109059E117988D
:101CC0000F9016980E9015980D9014980C90119CEA
:101CD0000DA90EC9A04710904BE1189800901798D5
:101CE0000F9016980E9015980D9014980C90119CCA
:101CF0000DA90EC9A04710903BE1DDE91801CDE91F
:101D0000000117980F9016980E9015980D90149842
:101D10000C90119C0DA90EC9A047109029E1DDE996
:101D200019211898CDE90121009017980F90169865
:101D30000E9015980D9014980C90119C0DA90EC939
:101D4000A047109015E111E1DDE9193218991B98AF
:101D5000CDE901320091039017980F9016980E90DC
:101D600015980D9014980C90119C0DA90EC9A047C0
:101D70001090FEE0DDE91923DDE91B10CDE9012318
:101D8000CDE903101898009017980F9016980E90B0
:101D900015980D9014980C90119C0DA90EC9A04790
:101DA0001090E6E0DDE91A23DDE91C10CDE90223FD
:101DB000CDE90410DDE91801CDE9000117980F9075
:101DC00016980E9015980D9014980C90119C0DA9D2
:101DD0000EC9A0471090CCE0DDE91C321B991E987B
:101DE000CDE9043203910690DDE919211898CDE977
:101DF0000121009017980F9016980E9015980D904D
:101E000014980C90119C0DA90EC9A0471090B0E039
:101E1000DDE91C23DDE91E10CDE90423CDE9061020
:101E2000DDE9193218991B98CDE901320091039030
:101E300017980F9016980E9015980D9014980C9076
:101E4000119C0DA90EC9A047109092E068E043E0F4
:101E500020E0FFE7DDE91E321D992098CDE906322A
:101E600005910890DDE91923DDE91B01CDE9012386
:101E7000CDE903011898009017980F9016980E90CE
:101E800015980D9014980C90119C0DA90EC9A0479F
:101E900010906EE0DDE91E13DDE92002CDE90613A6
:101EA000CDE90802DDE91A23DDE91C01CDE90223B1
:101EB000CDE90401DDE91801CDE9000117980F9083
:101EC00016980E9015980D9014980C90119C0DA9D1
:101ED0000EC9A04710904CE0DDE92031229A1F98EE
:101EE000CDE908310A920790DDE91B23DDE91D01E8
:101EF000CDE90323CDE90501DDE919211898CDE9E4
:101F00000121009017980F9016980E9015980D903B
:101F100014980C90119C0DA90EC9A047109028E0B0
:101F2000DDE9213220992398CDE9093208910B90FF
:101F3000DDE91D321C991F98CDE905320491079007
:101F4000DDE91823DDE91A10CDE90023CDE90210FF
:101F500017980F9016980E9015980D9014980C9055
:101F6000119C0DA90EC9A047109002E0002010900E
:101F700000BF00BF0649109809680860044800685F
:101F8000001D0349086024B010BD000004020020B9
:101F90000002002000BF0A48006810F8080C084939
:101FA000096811F8041C90FBF1F00549096801F873
:101FB000080C03480068001F0149086000BF704713
:101FC0000002002000BF0A48006850F8080C0849C9
:101FD000096851F8041C90FBF1F00549096841F8C3
:101FE000080C03480068001F0149086000BF7047E3
:101FF0000002002000BF0B48006830F9080C0949B6
:10200000096831F9041C90FBF1F000B20549096838
:1020100021F8080C03480068001F0249086000BF4F
:102020007047000000020020084800680078084956
:102030000968087006480068001D054908600348E3
:102040000068401C0149086070470000040200203D
:10205000000200200F48006800780E49096849789E
:1020600040EA01200B490968897840EA01400949A2
:102070000968C97840EA01600749096808600648AC
:102080000068001D0449086002480068001D0149FD
:10209000086070470402002000020020104909680F
:1020A00009780F4A1268527841EA02210C4A1268F4
:1020B000927841EA02410A4A1268D27841EA026003
:1020C0000178084A1268117006490968091D054A15
:1020D000116003490968091D014A11607047000039
:1020E00004020020000200200449096851F8040C91
:1020F0000178024A126802F8041C704700020020AE
:102100001049096809780F4A1268527841EA022199
:102110000C4A1268927841EA02410A4A1268D2785F
:1021200041EA0260084A01681268116006490968BC
:10213000091D054A116003490968091D014A11601A
:1021400070470000040200200002002004490968D2
:1021500051F8040C024A0168126842F8041C7047E6
:10216000000200201049096809780F4A1268527865
:1021700041EA02210C4A1268927841EA02410A4A75
:102180001268D27841EA02600188084A1268118018
:1021900006490968091D054A116003490968091DB6
:1021A000014A116070470000040200200002002074
:1021B0000449096851F8040C0188024A126822F89F
:1021C000041C7047000200200B48006800780A4990
:1021D0000968497840EA012000B208490968088086
:1021E00006480068001D0549086003480068801C17
:1021F000014908607047000004020020000200202E
:1022000000BF0B48006810F8080C0949096811F86C
:10221000041C90FBF1F201FB12000549096801F86A
:10222000080C03480068001F0149086000BF7047A0
:102230000002002000BF0B48006850F8080C094954
:10224000096851F8041C90FBF1F201FB12000549EA
:10225000096841F8080C03480068001F014908603C
:1022600000BF70470002002000BF0B48006830F933
:10227000080C0949096831F9041C90FBF1F201FBD3
:1022800012000549096821F8080C03480068001F7E
:102290000149086000BF70470002002000BF0A48E3
:1022A000006810F8080C0849096811F8041C484334
:1022B0000549096801F8080C03480068001F024935
:1022C000086000BF704700000002002000BF0A48FD
:1022D000006850F8080C0849096851F8041C484384
:1022E0000549096841F8080C03480068001F0249C5
:1022F000086000BF704700000002002000BF0A48CD
:10230000006830F8080C0849096831F8041C484393
:1023100000B20549096821F8080C03480068001F4D
:102320000149086000BF70470002002070470000AC
:1023300000BF0A48006810F8080C0849096811F83D
:10234000041C08430549096801F8080C03480068A3
:10235000001F0249086000BF704700000002002013
:1023600000BF0A48006850F8080C0849096851F88D
:10237000041C08430549096841F8080C0348006833
:10238000001F0249086000BF7047000000020020E3
:1023900000BF0A48006830F9080C0849096831F99B
:1023A000041C08430549096821F8080C0348006823
:1023B000001F0249086000BF7047000000020020B3
:1023C00002480068001F01490860704700020020B1
:1023D00000BF0A48006810F8080C0849096811F89D
:1023E000041C88400549096801F8080C0348006886
:1023F000001F0249086000BF704700000002002073
:1024000000BF0A48006850F8080C0849096811F82C
:10241000041C88400549096841F8080C0348006815
:10242000001F0249086000BF704700000002002042
:1024300000BF0A48006830F8080C0849096811F81C
:10244000041C884000B20549096821F8080C0348BB
:102450000068001F0149086000BF704700020020AB
:1024600000BF0A48006810F8080C0849096811F80C
:10247000041C08410549096801F8080C0348006874
:10248000001F0249086000BF7047000000020020E2
:1024900000BF0A48006850F8080C0849096811F89C
:1024A000041C08410549096841F8080C0348006804
:1024B000001F0249086000BF7047000000020020B2
:1024C00000BF0A48006830F9080C0849096811F88B
:1024D000041C08410549096821F8080C03480068F4
:1024E000001F0249086000BF704700000002002082
:1024F0000748006810F8040C0549096851F8081CE1
:10250000087003480068001F014908607047000018
:10251000000200200748006850F8040C05490968CB
:1025200051F8081C086003480068001F0149086052
:1025300070470000000200200748006830F8040CD3
:102540000549096851F8081C088003480068001F05
:1025500001490860704700000002002000BF0A48DF
:10256000006810F8080C0849096811F8041C401AA2
:102570000549096801F8080C03480068001F024972
:10258000086000BF704700000002002000BF0A483A
:10259000006850F8080C0849096851F8041C401AF2
:1025A0000549096841F8080C03480068001F024902
:1025B000086000BF704700000002002000BF0A480A
:1025C000006830F8080C0849096831F8041C401A02
:1025D00000B20549096821F8080C03480068001F8B
:1025E0000149086000BF70470002002000BF0A4890
:1025F000006810F8080C0849096811F8041C4840E4
:102600000549096801F8080C03480068001F0249E1
:10261000086000BF704700000002002000BF0A48A9
:10262000006850F8080C0849096851F8041C484033
:102630000549096841F8080C03480068001F024971
:10264000086000BF704700000002002000BF0A4879
:10265000006830F9080C0849096831F9041C484041
:102660000549096821F8080C03480068001F024961
:10267000086000BF704700000002002070B50446EB
:102680000D4640F2575024EA000008B904B104E0B6
:1026900040F22B410CA004F00BF80DB1012D00D13C
:1026A00004E040F22C4108A004F002F82DB11548D6
:1026B000406920431349486104E012484069A0433F
:1026C0001049486170BD00004C69627261726965B1
:1026D000735C53544D3332463130785F53746450D9
:1026E00065726970685F4472697665725C73726363
:1026F0005C73746D3332663130785F7263632E635E
:10270000000000000010024070B504460D4610485D
:10271000204008B904B104E040F269410DA003F083
:10272000C7FF0DB1012D00D104E040F26A4109A0BC
:1027300003F0BEFF2DB11648C06920431449C8619B
:1027400004E01348C069A0431149C86170BD00008E
:10275000003601814C69627261726965735C535421
:102760004D3332463130785F53746450657269700E
:10277000685F4472697665725C7372635C73746DD2
:102780003332663130785F7263632E63000000007D
:102790000010024070B504460D461048204008B9AC
:1027A00004B104E040F2C3410DA003F081FF0DB17C
:1027B000012D00D104E040F2C44109A003F078FFEC
:1027C0002DB11648006920431449086104E01348FC
:1027D0000069A0431149086170BD00000036018105
:1027E0004C69627261726965735C53544D33324651
:1027F0003130785F5374645065726970685F4472F9
:10280000697665725C7372635C73746D33326631C2
:1028100030785F7263632E63000000000010024096
:1028200070B504460D461048204008B904B104E0D4
:1028300040F24A410DA003F03BFF0DB1012D00D144
:1028400004E040F24B4109A003F032FF2DB11648DD
:10285000806920431449886104E013488069A043DB
:102860001149886170BD00000200C0FF4C696272AE
:1028700061726965735C53544D3332463130785F11
:102880005374645065726970685F447269766572EA
:102890005C7372635C73746D3332663130785F726F
:1028A00063632E63000000000010024070B5044610
:1028B0000D461048204008B904B104E040F2A4419C
:1028C0000DA003F0F5FE0DB1012D00D104E040F2A2
:1028D000A54109A003F0ECFE2DB11648C0682043C5
:1028E0001449C86004E01348C068A0431149C86097
:1028F00070BD00000200C0FF4C69627261726965C0
:10290000735C53544D3332463130785F53746450A6
:1029100065726970685F4472697665725C73726330
:102920005C73746D3332663130785F7263632E632B
:10293000000000000010024010B501210420FFF744
:102940006FFF01218803FFF76BFF01210420FFF7D0
:1029500067FF01214804FFF7D7FE01210820FFF798
:102960005FFF01218804FFF7CFFE10BD30B50021C5
:102970000022002400232D4D6D6805F00C0121B1CB
:10298000042905D0082923D105E0294D056022E05E
:10299000274D05601FE0254D6D6805F47012234D2D
:1029A0006D6805F48034022505EB92421CB9214D77
:1029B000554305600BE01D4D6D6805F400351DB1F4
:1029C0001C4D5543056002E0194D5543056002E07A
:1029D000174D056000BF00BF144D6D6805F0F00194
:1029E0000909154D6B5C0568DD4045600F4D6D684C
:1029F00005F4E061090A104D6B5C4568DD408560B7
:102A00000A4D6D6805F46051C90A0B4D6B5C456851
:102A1000DD40C560054D6D6805F44041890B074DEB
:102A20006B5CC568B5FBF3F5056130BD0010024075
:102A300000127A0000093D005800002068000020C4
:102A400070B504460D461248844205D011488442B0
:102A500002D01148844200D104E040F29A210FA034
:102A600003F026FE0DB1012D00D104E040F29B21C0
:102A70000AA003F01DFE25B1208840F400502080FC
:102A800004E020884DF6FF710840208070BD0000F2
:102A90000030014000380040003C00404C69627248
:102AA00061726965735C53544D3332463130785FDF
:102AB0005374645065726970685F447269766572B8
:102AC0005C7372635C73746D3332663130785F733C
:102AD00070692E630000000070B504460D46124870
:102AE000844205D01148844202D01148844200D16A
:102AF00004E04FF4D7710FA003F0DAFD0DB1012D02
:102B000000D104E040F2AF110AA003F0D1FD25B1DD
:102B1000208840F04000208004E020884FF6BF71FC
:102B20000840208070BD00000030014000380040A7
:102B3000003C00404C69627261726965735C535479
:102B40004D3332463130785F53746450657269702A
:102B5000685F4472697665725C7372635C73746DEE
:102B60003332663130785F7370692E630000000085
:102B700010B504461848844205D01848844202D053
:102B80001748844200D103E07A2116A003F090FD9B
:102B90001148844208D101218014FFF787FE0021EB
:102BA000A014FFF783FE16E00C48844208D10121EF
:102BB0000014FFF7EFFD00212014FFF7EBFD0AE002
:102BC0000748844207D10121C013FFF7E3FD00212C
:102BD000E013FFF7DFFD10BD00300140003800407A
:102BE000003C00404C69627261726965735C5354C9
:102BF0004D3332463130785F53746450657269707A
:102C0000685F4472697665725C7372635C73746D3D
:102C10003332663130785F7370692E6300000000D4
:102C200070B505460C4600261648854205D0164864
:102C3000854202D01548854200D104E040F20231BD
:102C400013A003F035FD802C0DD0402C0BD0202C90
:102C500009D0102C07D0082C05D0042C03D0022C4E
:102C600001D0012C00D104E040F2033108A003F0B0
:102C70001FFD2889204008B1012600E000263046CB
:102C800070BD00000030014000380040003C0040B2
:102C90004C69627261726965735C53544D3332469C
:102CA0003130785F5374645065726970685F447244
:102CB000697665725C7372635C73746D333266310E
:102CC00030785F7370692E630000000010B5044611
:102CD0000848844205D00848844202D0074884420C
:102CE00000D104E040F2362105A003F0E1FCA08908
:102CF00010BD00000030014000380040003C0040A2
:102D00004C69627261726965735C53544D3332462B
:102D10003130785F5374645065726970685F4472D3
:102D2000697665725C7372635C73746D333266319D
:102D300030785F7370692E630000000070B5044640
:102D40000D460848844205D00748844202D007480F
:102D5000844200D104E040F2262105A003F0A8FC43
:102D6000A58170BD0030014000380040003C0040AB
:102D70004C69627261726965735C53544D333246BB
:102D80003130785F5374645065726970685F447263
:102D9000697665725C7372635C73746D333266312D
:102DA00030785F7370692E630000000070B50546CF
:102DB0000C4600264F48854205D04F48854202D038
:102DC0004E48854200D103E0A3214DA003F070FCE2
:102DD000208858B12088B0F5806F07D02088B0F5E2
:102DE000004F03D02088B0F5404F00D103E0A6216A
:102DF00043A003F05DFC6088B0F5827F01D060885D
:102E000000B903E0A7213EA003F052FCA088B0F572
:102E1000006F01D0A08800B903E0A82138A003F01A
:102E200047FCE08810B1E088022800D103E0A92126
:102E300033A003F03DFC208910B12089012800D186
:102E400003E0AA212EA003F033FC6089B0F5007FD7
:102E500001D0608900B903E0AB2129A003F028FC70
:102E6000A089A0B1A089082811D0A08910280ED06F
:102E7000A08918280BD0A089202808D0A08928284C
:102E800005D0A089302802D0A089382800D103E0DD
:102E9000AC211BA003F00CFCE08910B1E089802874
:102EA00000D103E0AD2116A003F002FC208A012826
:102EB00000DB03E0AE2112A003F0FAFB2E8806F43B
:102EC0004156208861880843A1880843E188084367
:102ED0002189084361890843A1890843E18908439E
:102EE00006432E80A88B4FF2FF710840A883208AEA
:102EF000288270BD0030014000380040003C004096
:102F00004C69627261726965735C53544D33324629
:102F10003130785F5374645065726970685F4472D1
:102F2000697665725C7372635C73746D333266319B
:102F300030785F7370692E6300000000002101800B
:102F400041808180C180018141818181C1810721CE
:102F500001827047704710B500F002F810BD000004
:102F60000CB50020019000903348006840F4803098
:102F70003149086000BF3048006800F4003000901C
:102F80000198401C0190009818B90198B0F5A06F05
:102F9000F1D12948006800F4003010B10120009000
:102FA00001E0002000900098012843D123480068E8
:102FB00040F01000214908600846006820F0030036
:102FC00008600846006840F0020008601A4840683F
:102FD000194948600846406848600846406840F41F
:102FE000806048600846406820F47C1048600846CD
:102FF000406840F4E81048600846006840F080707F
:10300000086000BF0C48006800F000700028F9D08C
:103010000948406820F003000749486008464068B6
:1030200040F00200486000BF0348406800F00C0018
:103030000828F9D10CBD0000001002400020024019
:1030400010B50CF0ABFC0FF0D3FB0CF0BFFC10BDC7
:1030500010B51348006840F00100114908600846A7
:103060004068104908400E494860084600680E490B
:1030700008400B4908600846006820F4802008607A
:103080000846406820F4FE0048604FF41F00886046
:10309000FFF761FF4FF000600449086010BD0000B9
:1030A000001002400000FFF8FFFFF6FE08ED00E010
:1030B00010B5144C0CF072FC40F22551206800F061
:1030C000C3F940B1012110480CF06CFA40F22551CF
:1030D000206800F077F840F22661206800F0B4F92B
:1030E00020B140F22661206800F06CF808212068C9
:1030F00000F032F9012802D1034817F063F90CF00F
:1031000065FC10BD0C000020C802002010B5144C56
:103110000CF044FC40F22551206800F095F940B1D4
:10312000012110480CF03EFA40F22551206800F0D1
:1031300049F840F22661206800F086F920B140F29B
:103140002661206800F03EF80821206800F004F9AC
:10315000012802D1034817F035F90CF037FC10BDF7
:10316000140000201C03002010B5144C0CF016FCB9
:1031700040F22551206800F067F940B10121104864
:103180000CF010FA40F22551206800F01BF840F2D4
:103190002661206800F058F920B140F226612068CD
:1031A00000F010F80821206800F0D6F8012802D1BC
:1031B000034817F007F90CF009FC10BD1C000020B3
:1031C000700300202DE9F04104460D46002600273B
:1031D000224884420BD02248844208D021488442AD
:1031E00005D02148844202D02048844200D104E026
:1031F00040F20A411EA003F05BFA40F226608542CD
:103200000BD040F22550854207D040F6460085425B
:1032100003D040F66A10854200D104E040F20B4131
:1032200013A003F045FA40F66A1085420ED10B4810
:10323000844205D00A48844202D00A48844200D120
:1032400004E040F20F410AA003F032FA2E120120EE
:10325000B04087B2F8432080BDE8F08100380140DB
:103260000044004000480040004C00400050004036
:103270004C69627261726965735C53544D333246B6
:103280003130785F5374645065726970685F44725E
:10329000697665725C7372635C73746D3332663128
:1032A00030785F75736172742E63000070B50446E8
:1032B0000D46154884420BD01448844208D0144867
:1032C000844205D01348844202D01348844200D17E
:1032D00004E04FF4B17111A003F0EAF90DB1012D32
:1032E00000D104E040F263110CA003F0E1F925B134
:1032F000A08940F40050A08104E0A0894DF6FF7140
:103300000840A08170BD000000380140004400402A
:1033100000480040004C0040005000404C69627280
:1033200061726965735C53544D3332463130785F56
:103330005374645065726970685F4472697665722F
:103340005C7372635C73746D3332663130785F75B1
:10335000736172742E63000070B505460C4600263A
:10336000254885420BD02548854208D0244885420F
:1033700005D02448854202D02348854200D104E08C
:1033800040F26E3121A003F093F9012C13D0802C70
:1033900011D0402C0FD0202C0DD0102C0BD0B4F518
:1033A000807F08D0B4F5007F05D0082C03D0042C12
:1033B00001D0022C00D104E040F26F3113A003F0E1
:1033C00077F9B4F5007F0ED10B48854205D00B4844
:1033D000854202D00A48854200D104E040F27331B0
:1033E0000AA003F065F92888204008B1012600E012
:1033F0000026304670BD0000003801400044004007
:1034000000480040004C0040005000404C6962728F
:1034100061726965735C53544D3332463130785F65
:103420005374645065726970685F4472697665723E
:103430005C7372635C73746D3332663130785F75C0
:10344000736172742E6300002DE9F04705460C4647
:1034500000270026B046B1463A4885420BD03A488C
:10346000854208D03948854205D03948854202D086
:103470003848854200D104E040F2C13136A003F063
:1034800017F9282C20D040F2277084421CD040F23B
:103490002660844218D040F22550844214D040F275
:1034A0002440844210D040F6460084420CD040F6BE
:1034B0006A10844208D0B4F5587F05D0B4F5187F5F
:1034C00002D0B4F5B07F00D104E040F2C23122A0B6
:1034D00003F0EEF840F66A1084420ED11948854296
:1034E00005D01948854202D01848854200D104E031
:1034F00040F2C63118A003F0DBF8C4F3421804F020
:103500001F06012000FA06F6B8F1010F02D1A889C2
:10351000064007E0B8F1020F02D1288A064001E018
:10352000A88A06402712012000FA07F728880740DA
:103530001EB117B14FF0010901E04FF000094846F4
:10354000BDE8F087003801400044004000480040DA
:10355000004C0040005000404C6962726172696525
:10356000735C53544D3332463130785F537464503A
:1035700065726970685F4472697665725C737263C4
:103580005C73746D3332663130785F757361727459
:103590002E6300002DE9F04705460C4617464FF014
:1035A0000008C246C1460026384885420BD038483C
:1035B000854208D03748854205D03748854202D039
:1035C0003648854200D104E040F2891134A003F06E
:1035D0006FF8282C19D040F22770844215D040F2A1
:1035E0002660844211D040F2255084420DD040F232
:1035F0002440844209D040F64600844205D040F67B
:103600006A10844201D0602C00D104E04FF4C571EF
:1036100023A003F04DF80FB1012F00D104E040F2D8
:103620008B111FA003F044F840F66A1084420ED1BB
:103630001648854205D01648854202D01548854275
:1036400000D104E040F28F1115A003F031F82E46AE
:10365000C4F3421804F01F0A012000FA0AF9B8F175
:10366000010F01D10C3605E0B8F1020F01D110367F
:1036700000E0143627B1306840EA0900306003E00A
:10368000306820EA09003060BDE8F087003801406A
:103690000044004000480040004C00400050004002
:1036A0004C69627261726965735C53544D33324682
:1036B0003130785F5374645065726970685F44722A
:1036C000697665725C7372635C73746D33326631F4
:1036D00030785F75736172742E6300002DE9F047D6
:1036E00086B005460C460026B24600BFB14600270C
:1036F0006B4885420BD06B48854208D06A488542AA
:1037000005D06A48854202D06948854200D103E06D
:10371000B82168A002F0CCFF206820B1744920686D
:10372000884200D203E0B92162A002F0C1FFA08864
:1037300018B1A088B0F5805F00D103E0BA215DA088
:1037400002F0B6FFE08858B1E088B0F5805F07D09E
:10375000E088B0F5005F03D0E088B0F5405F00D1AD
:1037600003E0BB2153A002F0A3FF208938B12089D8
:10377000B0F5806F03D02089B0F5C06F00D103E0B1
:10378000BC214CA002F094FF60894FF6F371084011
:1037900010B9608900B103E0BD2146A002F088FFA6
:1037A000A08958B1A089B0F5807F07D0A089B0F575
:1037B000007F03D0A089B0F5407F00D103E0BE2197
:1037C0003CA002F075FFA08968B13548854205D05C
:1037D0003448854202D03448854200D103E0C221FA
:1037E00034A002F065FF2F462E8A4CF6FF7006408B
:1037F000E08806432E82AE894EF6F3100640A0887C
:1038000021890843618908430643AE81AE8A4FF699
:10381000FF400640A0890643AE8201A8FFF7A6F844
:103820001F48874202D1DDF810A001E0DDF80CA0AE
:10383000A88900F4004040B10AEBCA0000EB0A106E
:1038400021684900B0FBF1F807E00AEBCA0000EB81
:103850000A1021688900B0FBF1F86420B8FBF0F091
:1038600006013009642101FB1089A88900F4004099
:1038700040B1322000EBC900B0FBF1F000F00700CE
:10388000064308E0322000EB09106421B0FBF1F0A0
:1038900000F00F0006432E8106B0BDE8F08700005F
:1038A000003801400044004000480040004C004007
:1038B000005000404C69627261726965735C5354D8
:1038C0004D3332463130785F53746450657269709D
:1038D000685F4472697665725C7372635C73746D61
:1038E0003332663130785F75736172742E63000015
:1038F00021AA440000BFFEE700487047C402002030
:10390000014609B900207047C8B220B1C8B20E4ABA
:10391000105C401CF7E701F47F4028B10A48C1F36E
:103920000722805C0930EEE701F47F0028B10648E9
:10393000C1F30742805C1130E5E7034800EB1160FA
:1039400000781930DFE700008DB1010802E008C8F7
:10395000121F08C1002AFAD170477047002001E009
:1039600001C1121F002AFBD170472DE9FF5F83467A
:103970009A460EAC94E87001C8F1FF09BAF1010F44
:1039800006D0BAF1020F31D0BAF1030F7CD15BE05F
:1039900000BF5846DDE9011200F0E9FA074600BF12
:1039A000D7F800C0CCF30740B7F800C0CCF307212C
:1039B0003A78D7F800C04FEA1C6309FB00FC04EB1F
:1039C0001C2009FB01FC05EB1C2109FB02FC06EB9A
:1039D0001C224FEA036C4CEA004C4CEA012C4CEAE6
:1039E000020CC7F800C000BF00BF76E000BF584619
:1039F000DDE9011200F0BBFA074600BFD7F800C0AE
:103A0000CCF30740B7F800C0CCF307213A78D7F8D9
:103A100000C04FEA1C632044FF2800D9FF2029443E
:103A2000FF2900D9FF213244FF2A00D9FF224FEAA3
:103A3000036C4CEA004C4CEA012C4CEA020CC7F82F
:103A400000C000BF00BF48E000BF5846DDE90112DA
:103A500000F08DFA074600BFD7F800C0CCF307404E
:103A6000B7F800C0CCF307213A78D7F800C04FEA86
:103A70001C6300FB04FC4FEA1C2001FB05FC4FEA21
:103A80001C2102FB06FC00E00EE04FEA1C224FEA7C
:103A9000036C4CEA004C4CEA012C4CEA020CC7F8CF
:103AA00000C000BF00BF18E000BF5846DDE90112AA
:103AB00000F05DFA074600BF2046294632464346DD
:103AC0004FEA036C4CEA004C4CEA012C4CEA020C25
:103AD000C7F800C000BF00BF00BF00BF002004B097
:103AE000BDE8F09F2DE9FF5F834699460EAC94E850
:103AF0007004CAF1FF08B9F1010F06D0B9F1020F45
:103B00003AD0B9F1030F6ED16EE000BF5846DDE93F
:103B1000011200F02CFA074600BF5D4BDB68B7F8D6
:103B200000C003EBDC231A78594B9B68B7F800C040
:103B3000CCF3451C13F80C10554BDB6897F800C00C
:103B40000CF01F0C13F80C0008FB00F304EB13201F
:103B500008FB01F305EB132108FB02F306EB13222C
:103B6000D308DB024FEA910C43EA4C1343EAD0033B
:103B70003B8000BF00BF86E000BF5846DDE9011270
:103B800000F0F5F9074600BF414BDB68B7F800C00D
:103B900003EBDC231A783E4B9B68B7F800C0CCF3EC
:103BA000451C13F80C103A4BDB6897F800C00CF07A
:103BB0001F0C13F80C002044FF2800D9FF202944D3
:103BC000FF2900D9FF213244FF2A00D9FF22D30860
:103BD000DB024FEA910C43EA4C1343EAD0033B80EB
:103BE00000BF00BF4FE033E000BF5846DDE90112DF
:103BF00000F0BDF9074600BF254BDB68B7F800C0F1
:103C000003EBDC231A78224B9B68B7F800C0CCF397
:103C1000451C13F80C101E4BDB6897F800C00CF025
:103C20001F0C13F80C0000FB04F3180A01FB05F34A
:103C3000190A02FB06F31A0AD308DB024FEA910CB9
:103C400043EA4C1343EAD0033B8000BF00BF1AE0B5
:103C500000BF5846DDE9011200F089F9074600BFB0
:103C600020462946324653464FEAD20C4FEACC2C26
:103C70004FEA910E4CEA4E1C4CEAD00CA7F800C05B
:103C800000BF00BF00BF00BF002004B0BDE8F09F30
:103C9000240200202DE9FF5F834699460EAC94E88C
:103CA0007004CAF1FF08B9F1010F06D0B9F1020F93
:103CB0003AD0B9F1030F6ED16EE000BF5846DDE98E
:103CC000011200F054F9074600BF5D4BDB68B7F8FE
:103CD00000C003EBDC231878594B9B68B7F800C091
:103CE000CCF3451C13F80C10554BDB6897F800C05B
:103CF0000CF01F0C13F80C2008FB00F304EB13204E
:103D000008FB01F305EB132108FB02F306EB13227A
:103D1000C308DB024FEA910C43EA4C1343EAD20397
:103D20003B8000BF00BF86E000BF5846DDE90112BE
:103D300000F01DF9074600BF414BDB68B7F800C033
:103D400003EBDC2318783E4B9B68B7F800C0CCF33C
:103D5000451C13F80C103A4BDB6897F800C00CF0C8
:103D60001F0C13F80C202044FF2800D9FF20294401
:103D7000FF2900D9FF213244FF2A00D9FF22C308BE
:103D8000DB024FEA910C43EA4C1343EAD2033B8037
:103D900000BF00BF4FE033E000BF5846DDE901122D
:103DA00000F0E5F8074600BF254BDB68B7F800C018
:103DB00003EBDC231878224B9B68B7F800C0CCF3E8
:103DC000451C13F80C101E4BDB6897F800C00CF074
:103DD0001F0C13F80C2000FB04F3180A01FB05F379
:103DE000190A02FB06F31A0AC308DB024FEA910C18
:103DF00043EA4C1343EAD2033B8000BF00BF1AE002
:103E000000BF5846DDE9011200F0B1F8074600BFD7
:103E100020462946324653464FEAD00C4FEACC2C76
:103E20004FEA910E4CEA4E1C4CEAD20CA7F800C0A7
:103E300000BF00BF00BF00BF002004B0BDE8F09F7E
:103E4000240200202DE9FF5F834699460EAC94E8DA
:103E50007004CAF1FF08B9F1010F06D0B9F1020FE1
:103E600026D0B9F1030F66D145E000BF5846DDE921
:103E7000011200F07CF8074600BF3B68C3F307401F
:103E80003B88C3F307213A7808FB00F304EB1320C7
:103E900008FB01F305EB132108FB02F306EB1322E9
:103EA000030443EA012313433B6000BF00BF59E012
:103EB00000BF5846DDE9011200F059F8074600BF7F
:103EC0003B68C3F307403B88C3F307213A7820449B
:103ED000FF2800D9FF202944FF2900D9FF213244BF
:103EE000FF2A00D9FF22030443EA012313433B6066
:103EF00000BF00BF36E000BF5846DDE9011200F008
:103F000036F8074600BF3B68C3F307403B88C3F35E
:103F100007213A7800FB04F3180A01FB05F3190A9C
:103F200002FB06F31A0A030443EA012313433B602E
:103F300000BF00BF16E000BF5846DDE9011200F0E7
:103F400016F8074600BF20462946324653464FEA38
:103F5000004C4CEA012C4CEA020CC7F800C000BF30
:103F600000BF00BF00BF002004B0BDE8F09F2DE9F6
:103F7000F04704460D4616460027206810B1206819
:103F8000012818D111F0D0FB876817B90020BDE8CF
:103F9000F08711F0C9FB408806FB007911F0C4FBE3
:103FA000407800F107084FEAE87008EB5070C01045
:103FB00005FB009710E0206802280DD1A04698F874
:103FC00018000FF06FFFB8F81E20D8F8201006FB7D
:103FD000021105FB001700BF3846D8E770B504464C
:103FE0002F212046FCF7DEF9050001D1204670BDE7
:103FF000681C0546FBE7000003490868884201D0B9
:10400000012070470020FCE75801002070B596B0F1
:1040100005465022124902A8FCF770F911A00BF0D6
:104020004BFD1BA00BF048FD2E6813E0A6F10C041D
:10403000A07E0090207D132804DC207D02A951F889
:10404000200000E015980346224608211BA00BF033
:1040500033FD3668AE42E9D1002016B070BD0000D5
:1040600084B70108646576696365202020747970DF
:1040700065202020202020202020202020202020FB
:10408000202072656620636F756E740A0000000060
:104090002D2D2D2D2D2D2D2D202D2D2D2D2D2D2D5D
:1040A0002D2D2D2D2D2D2D2D2D2D2D2D2D202D2D4D
:1040B0002D2D2D2D2D2D2D2D0A000000252D382ED6
:1040C0002A7320252D32307320252D38640A0000F4
:1040D000F8B5054616A00BF0EFFC1EA00BF0ECFCAB
:1040E0002E6821E0A6F10C0404F114000BF075FD1C
:1040F00098B904F114000BF080FD074600902246A9
:1041000008211DA0E3690BF0D7FC04F1140015F0A1
:10411000D9FD1FA00BF0D0FC05E0224608211DA010
:10412000E3690BF0C9FC3668AE42DBD10020F8BD74
:104130006576656E74202020207365742020202011
:104140002020202073757370656E6420746872651A
:1041500061640A002D2D2D2D2D2D2D2D202D2D2D81
:104160002D2D2D2D2D2D2D202D2D2D2D2D2D2D2D8C
:104170002D2D2D2D2D2D0A00252D382E2A73202092
:1041800030782530387820253033643A000000003C
:104190000A000000252D382E2A7320203078253083
:1041A000387820300A0000002DE9FC4105461CA0AB
:1041B0000BF082FC23A00BF07FFC2E682BE0A6F115
:1041C0000C0404F114000BF008FDA8B904F114006C
:1041D0000BF013FD0746208CCDE90007638C2246C7
:1041E000082121A00BF068FC04F1140015F06AFD11
:1041F00023A00BF061FC0DE004F114000BF0FDFCBA
:104200000746208CCDE90007638C224608211DA0BB
:104210000BF052FC3668AE42D1D10020BDE8FC81E3
:104220006D61696C626F782020656E74727920739D
:10423000697A652073757370656E64207468726541
:1042400061640A002D2D2D2D2D2D2D2D202D2D2D90
:104250002D20202D2D2D2D202D2D2D2D2D2D2D2DB5
:104260002D2D2D2D2D2D0A00252D382E2A7320259C
:104270003034642020253034642025643A00000066
:104280000A000000252D382E2A73202530346420A2
:1042900020253034642025640A000000FEB5054660
:1042A00018A00BF009FC22A00BF006FC2E6824E0FD
:1042B000A6F10C04606B98B1D4E90912606BCDE9EA
:1042C000001202902246082124A0E3690BF0F4FBBF
:1042D00004F12C0015F0F6FC14A00BF0EDFB0BE044
:1042E000D4E90912606BCDE9001202902246082140
:1042F00021A0E3690BF0E0FB3668AE42D8D1002084
:10430000FEBD00006D656D706F6F6C2020626C6F7C
:10431000636B20746F74616C2066726565207375C1
:104320007370656E64207468726561640A000000D1
:104330002D2D2D2D2D2D2D2D202D2D2D2D20202DD4
:104340002D2D2D20202D2D2D2D202D2D2D2D2D2DC4
:104350002D2D2D2D2D2D2D2D0A000000252D382E33
:104360002A73202530346420202530346420202511
:104370003034642025643A00252D382E2A732025F8
:1043800030346420202530346420202530346420EB
:1043900025640A00F8B5054619A00BF08DFB20A096
:1043A0000BF08AFB2E6827E0A6F10C0404F1140040
:1043B0000BF013FC98B904F114000BF01EFC074637
:1043C0000090A38C224608211DA00BF075FB04F180
:1043D000140015F077FC1FA00BF06EFB0BE004F14E
:1043E00014000BF00AFC07460090A38C224608211B
:1043F00019A00BF061FB3668AE42D5D10020F8BDA4
:104400006D7367717565756520656E74727920735B
:10441000757370656E64207468726561640A00006B
:104420002D2D2D2D2D2D2D2D202D2D2D2D20202DE3
:104430002D2D2D2D2D2D2D2D2D2D2D2D2D0A000029
:10444000252D382E2A732025303464202025643A07
:10445000000000000A000000252D382E2A732025B8
:10446000303464202025640A00000000FEB50546B3
:104470000FA00BF021FB18A00BF01EFB2E6812E022
:10448000A6F10C0404F114000BF0B7FB0746E07F23
:10449000216A08232246CDE901070091194618A098
:1044A0000BF00AFB3668AE42EAD10020FEBD0000E8
:1044B0006D75746578202020206F776E65722020DE
:1044C0002020686F6C642073757370656E6420744F
:1044D00068726561640A00002D2D2D2D2D2D2D2D66
:1044E000202D2D2D2D2D2D2D2D202D2D2D2D202D23
:1044F0002D2D2D2D2D2D2D2D2D2D2D2D2D0A000069
:10450000252D382E2A7320252D382E2A732025306C
:1045100034642025640A0000F8B5054619A00BF0A4
:10452000CBFA20A00BF0C8FA2E6827E0A6F10C0405
:1045300004F114000BF051FB98B904F114000BF0D6
:104540005CFB07460090A38B224608211DA00BF0C0
:10455000B3FA04F1140015F0B5FB11A00BF0ACFA9E
:104560000BE004F114000BF048FB07460090A38B0E
:104570002246082118A00BF09FFA3668AE42D5D12A
:104580000020F8BD73656D6170686F7265207620DC
:10459000202073757370656E642074687265616441
:1045A0000A0000002D2D2D2D2D2D2D2D20202D2DFF
:1045B0002D202D2D2D2D2D2D2D2D2D2D2D2D2D2D38
:1045C0000A000000252D382E2A7320202530336460
:1045D0002025643A00000000252D382E2A73202063
:1045E000253033642025640A000000002DE9FC41D9
:1045F000054629480BF060FA28480BF05DFA2E6852
:1046000045E0A6F10C0494F835302246082124A098
:104610000BF052FA94F83400012803D124A00BF0D7
:104620004BFA15E094F83400022803D123A00BF0D4
:1046300043FA0DE094F8340018B923A00BF03CFACB
:1046400006E094F83400042802D122A00BF034FADA
:10465000A76A00E07F1C38782328FBD0216BA06C70
:10466000CDE90001A08DD4F828C0A7EB0C0CA0EB7D
:104670000C03D4F81CC0A06AA0EB0C00B4F82CC04A
:1046800000EB0C01624616A00BF016FA3668AE423B
:10469000B7D10020BDE8FC8118ED0108D0EC01087D
:1046A000252D382E2A7320307825303278000000EE
:1046B000207265616479202000000000207375730A
:1046C00070656E640000000020696E69742020200F
:1046D0000000000020636C6F736520200000000064
:1046E00020307825303878203078253038782030E0
:1046F00078253038782030782530387820253033C8
:10470000640A0000F8B5054614A00BF0D5F91DA009
:104710000BF0D2F92E6815E0A6F10C04A06A009007
:104720002246082122A0636A0BF0C6F9607A00F0E5
:10473000010018B124A00BF0BFF902E025A00BF096
:10474000BBF93668AE42E7D10EF04CF80746394661
:1047500024A00BF0B1F90020F8BD000074696D656C
:104760007220202020706572696F646963202020A8
:1047700074696D656F757420202020666C61670A0E
:10478000000000002D2D2D2D2D2D2D2D202D2D2D1A
:104790002D2D2D2D2D2D2D202D2D2D2D2D2D2D2D56
:1047A0002D2D202D2D2D2D2D2D2D2D2D2D2D0A0096
:1047B000252D382E2A73203078253038782030780F
:1047C0002530387820000000616374697661746573
:1047D000640A000064656163746976617465640AE3
:1047E0000000000063757272656E74207469636BFB
:1047F0003A3078253038780A000000002DE9F0477B
:1048000081460F4690461C4610F0D8FF06462649C2
:10481000D9F800000968884222D13D461DE0E21720
:1048200004EB5272D210B36853F82220525D214635
:10483000E31704EB5373DB10A4EBC30C012303FA5F
:104840000CF39A432046E31704EB5373DB10D6F8BE
:1048500008C05CF823305A556D1C4545DFD321E074
:104860003D461DE0E21704EB5272D210B36853F8D4
:104870002220525D2146E31704EB5373DB10A4EBB7
:10488000C30C012303FA0CF31A432046E31704EB8D
:104890005373DB10D6F808C05CF823305A556D1CF2
:1048A0004545DFD3BDE8F08718DA01082DE9F04768
:1048B0000746884691461C4610F080FF064645464E
:1048C00044E007EBD500007810B305F007010120A4
:1048D0008840E8B1E21704EB5272D210B36853F883
:1048E0002220525D2146E31704EB5373DB10A4EB47
:1048F000C30C012303FA0CF31A432046E31704EB1D
:104900005373DB10D6F808C05CF823305A551CE00E
:10491000E21704EB5272D210B36853F82220525DB2
:104920002146E31704EB5373DB10A4EBC30C012304
:1049300003FA0CF39A432046E31704EB5373DB109E
:10494000D6F808C05CF823305A556D1C4D45B8D3D5
:10495000BDE8F0872DE9F04781460D461746984699
:1049600010F02CFF06461849D9F800000968884263
:1049700014D13C460FE0E108B06850F82100405DDA
:1049800004F00702012191408843E208B16851F820
:1049900022104855641C4445EDD313E03C460FE01B
:1049A000E108B06850F82100405D04F007020121E1
:1049B00091400843E208B16851F822104855641C40
:1049C0004445EDD3BDE8F08718DA01082DE9F04140
:1049D00005460E46144610F0F1FE0746E21704EBBA
:1049E0005272D210BB6853F82220925DE31704EB99
:1049F0005373DB10A4EBC30C012303FA0CF31A402E
:104A00001AB104480068286002E003480068286082
:104A1000BDE8F08114DA010818DA01082DE9F04147
:104A200007460D46144610F0C9FE06462049386870
:104A3000096888421DD1E21704EB5272D210B368A4
:104A400053F82220525D2146E31704EB5373DB1029
:104A5000A4EBC30C012303FA0CF39A432046E3179B
:104A600004EB5373DB10D6F808C05CF823305A55BA
:104A70001CE0E21704EB5272D210B36853F8222004
:104A8000525D2146E31704EB5373DB10A4EBC30C18
:104A9000012303FA0CF31A432046E31704EB537384
:104AA000DB10D6F808C05CF823305A55BDE8F08119
:104AB00018DA01082DE9F04707460D4614461E4650
:104AC000AC420DDD10F07AFEC068C06BA4EB0508A7
:104AD000434632462946D0F810903846C8470CE085
:104AE00010F06CFEC068C06BA5EB0408434632466C
:104AF0002146D0F810903846C847BDE8F0872DE928
:104B0000F84304460D4616461F4620680FF003FA88
:104B1000009010F053FEC068C06B3B4632462946F9
:104B2000D0F808806846C047BDE8F8832DE9F8430F
:104B300004460D4616461F4620680FF0ECF900901B
:104B400010F03CFEC068C06B3B4632462946D0F8A8
:104B50000C806846C047BDE8F8830000F8B50446FD
:104B60000D46164610F02AFEC068C06B3246294634
:104B700047686846B8479DF8001011B1034A1068AD
:104B800001E0034A106800BF2060F8BD18DA010890
:104B900014DA0108F8B504460D46164620680FF0F1
:104BA000BAF9009010F00AFEC068C06B3246294680
:104BB00007686846B847F8BD2DE9F84304460D4636
:104BC00016461F4620680FF07DF9009010F0F6FDA4
:104BD000C068C06B3B4632462946D0F8088068461C
:104BE000C047BDE8F8832DE9F84304460D46164654
:104BF0001F4620680FF066F9009010F0DFFDC068D6
:104C0000C06B3B4632462946D0F80C806846C04708
:104C1000BDE8F883F8B504460D46164610F0CEFD03
:104C2000C068C06B3246294647686846B847BDF839
:104C300000000FF001F92060F8BDF8B504460D46FC
:104C4000164620680FF03EF9009010F0B7FDC068DE
:104C5000C06B3246294607686846B847F8BD2DE95B
:104C6000F84304460D4616461F4620680FF039F9F2
:104C7000009010F0A3FDC068C06B3B463246294649
:104C8000D0F808806846C047BDE8F8832DE9F843AE
:104C900004460D4616461F4620680FF022F9009084
:104CA00010F08CFDC068C06B3B4632462946D0F8F8
:104CB0000C806846C047BDE8F883F8B504460D4649
:104CC000164610F07BFDC068C06B32462946476827
:104CD0006846B847BDF800000FF0C9F82060F8BD7D
:104CE000F8B504460D46164620680FF0FAF8009015
:104CF00010F064FDC068C06B3246294607686846FC
:104D0000B847F8BD2DE9F84304460D4616461F4640
:104D100020680FF0F4F8009010F050FDC068C06BF0
:104D20003B4632462946D0F808806846C047BDE871
:104D3000F8832DE9F84304460D4616461F462068C1
:104D40000FF0DDF8009010F039FDC068C06B3B46F5
:104D500032462946D0F80C806846C047BDE8F88343
:104D6000F8B504460D46164610F028FDC068C06B25
:104D70003246294647686846B8470098C0F307237B
:104D8000024663F31F22C0F3074342EA034242F0A4
:104D90007F4100BF2160F8BDF8B504460D461646B8
:104DA00020680FF0ACF8009010F008FDC068C06BF0
:104DB0003246294607686846B847F8BD2DE9F84FDE
:104DC00005460C4616461F4628680FF07BF80090F3
:104DD00010F0F4FCD0F808B010F0F0FC408807FBAD
:104DE00000BB10F0EBFC407800F1070A4FEAEA70D4
:104DF0000AEB5070C01004FB00B9A04606E0009812
:104E0000A9F8000009F1020908F10108B045F6D33C
:104E1000BDE8F88F2DE9F05F06460F461546984627
:104E200010F0CCFC044630680FF04CF883466288E2
:104E3000A16805FB02126178C81DC11700EB517112
:104E4000C91007FB0129AA4605E0A9F800B060884F
:104E500081440AF1010AC245F7D3BDE8F09F2DE96C
:104E6000F04704460D46164610F0A8FCD0F808900E
:104E700010F0A4FC408806FB009910F09FFC4078DD
:104E8000C71DF81707EB5070C010684339F8008051
:104E900040460EF0D1FF2060BDE8F0872DE9F047D5
:104EA00004460D46164620680FF00CF8804610F0B8
:104EB00085FCD0F8089010F081FC408806FB009932
:104EC00010F07CFC4078C71DF81707EB5070C0103D
:104ED000684329F80080BDE8F0872DE9F84F0546C2
:104EE0000C4616461F4628680EF0FBFF009010F097
:104EF00065FCD0F808B010F061FC408807FB00BBEF
:104F000010F05CFC407800F1070A4FEAEA700AEB07
:104F10005070C01004FB00B9A04606E00098A9F844
:104F2000000009F1020908F10108B045F6D3BDE817
:104F3000F88F2DE9F05F06460F461546984610F0AB
:104F40003DFC044630680EF0CCFF83466288A168C1
:104F500005FB02126178C81DC11700EB5171C91021
:104F600007FB0129AA4605E0A9F800B06088814442
:104F70000AF1010AC245F7D3BDE8F09F2DE9F047D9
:104F800004460D46164610F019FCD0F8089010F0B3
:104F900015FC408806FB009910F010FC4078C71DF6
:104FA000F81707EB5070C010684339F8008040468E
:104FB0000EF05DFF2060BDE8F0872DE9F047044664
:104FC0000D46164620680EF08CFF804610F0F6FB6A
:104FD000D0F8089010F0F2FB408806FB009910F022
:104FE000EDFB4078C71DF81707EB5070C010684301
:104FF00029F80080BDE8F08770B5044624B95A222C
:10500000124913A009F06AFBA16AE069884205D938
:10501000A18DA06A0844E16988420CD2214611A002
:105020000AF04AFD08F0D4FAFBF79EF8054600BFE7
:10503000002DFDD108E0A06A2030E169814203D84B
:1050400021460FA00AF038FD70BD000053B30108DF
:1050500074687265616420213D2052545F4E554C46
:105060004C0000007468726561643A2573207374A3
:1050700061636B206F766572666C6F770A00000063
:105080007761726E696E673A20257320737461636D
:105090006B20697320636C6F736520746F20656E7D
:1050A00064206F6620737461636B20616464726551
:1050B00073732E0A000000002DE9FC5F04468B4646
:1050C00016461F46DDE90C9ADDE90E5804F114007E
:1050D0004060006000BF26626762C4F82890A4F8B0
:1050E0002CA0A28D2321A06A0BF0BBF9B4F82CC030
:1050F000A36A63441A1F134BD4E908010AF080FB2A
:10510000E061202D04DB6E220F4910A009F0E6FAC1
:105110003034A5716571C4F81480C4F8188000207B
:1051200020602071A064E064303C00902346104A67
:105130002146019004F14C000DF014FC0020BDE864
:10514000FC9F00004D230108A1B301087072696F34
:1051500072697479203C2052545F5448524541444E
:105160005F5052494F524954595F4D415800000019
:10517000052701082DE9F04704460E4617469846D4
:10518000DDF8209084F80990607A20F001006072C8
:10519000E66127620020A062C4F82480002506E0B2
:1051A00004F1140101EBC5000AF0C0FC6D1C012DD7
:1051B000F6DBBDE8F08710B50246002001460EE0A0
:1051C00002F1140303EBC100D0E900436360D0E9AE
:1051D000003423604060006000BF481C0146012984
:1051E000EEDB10BD10B504460849204610F06AFFFA
:1051F00000202061606104202076002060836065CB
:10520000A08320626062E064206510BD91310108D6
:1052100010B5044624B92922044905A009F05EFA14
:10522000206909F065FF0020206110BD44E00108FD
:1052300061707020213D2052545F4E554C4C00004F
:105240002DE9F04107460E463546E86810B90020C2
:10525000BDE8F081E86838B1E86890F8960000F0A1
:10526000020008B10120F3E7EC68208900F42B402C
:10527000B0F52B4F01D00120EAE7EC6844B160683B
:1052800020B13146204662689047E1E70020DFE721
:10529000318802A00AF010FC0020D9E7525447558B
:1052A00049204552524F523A7365727665722073A7
:1052B000656E742061206576656E742825642920EA
:1052C000776974686F7574207769640A000000005C
:1052D0002DE9F041044600BF2CB940F23D122A49A5
:1052E0002AA009F0FBF9206A28B940F23D122649AC
:1052F0002AA009F0F3F9206AC06F28B940F23D12E4
:1053000021492BA009F0EAF9606A28B940F23D1260
:105310001D492EA009F0E2F900BF04F12807608BB7
:10532000401C86B2668329E0608BB04205D040F213
:10533000451215492AA009F0D1F9206D90B100223B
:105340002421384611F054FB054625B9394620463C
:105350006268904712E0A81C80B900212046226DA7
:1053600090470BE04FF0FF322421384611F040FB0C
:1053700005461DB93946204662689047608BB042A9
:10538000D2DABDE8F0810000BFE001086170702052
:10539000213D2052545F4E554C4C00006170702DE1
:1053A0003E74696420213D2052545F4E554C4C00A0
:1053B0006170702D3E7469642D3E757365725F6413
:1053C00061746120213D2030000000006170702D6B
:1053D0003E6D7120213D2052545F4E554C4C0000D3
:1053E00063757272656E745F726566203D3D206103
:1053F00070702D3E7265665F636F756E740000009D
:105400000048704730E0010810B5044600212046EE
:1054100010F058FE0120208202206082002060618E
:1054200010BD000010B504460649204610F04AFEA3
:1054300000BF0020E06600BFA066E06940F01000F9
:10544000E06110BD3940010810B5044620460EF059
:1054500084FDA06E10B1A06E10F0FEFD10BD000026
:105460000048704734DA010800B970474FF42B4107
:105470000181C06000BFF8E7002101810160704731
:1054800070B50546284613F039F9044604B970BDD5
:10549000204600F03BFB00BFF9E7000070B5044672
:1054A0002CB94FF424721F491FA009F017F9E069C5
:1054B00028B940F291221B4920A009F00FF920E001
:1054C000E069856A18E035F8200C20F0080025F81E
:1054D000200CA5F12000C06890F8960020F008018B
:1054E000A5F12000C06880F8961035F8200C00F473
:1054F000807000B109E02D68E0692830A842E2D14F
:10550000E469E0690028DBD100BF208820F00800B2
:105510002080E06890F8960020F00800E16881F8AB
:10552000960070BDBDE40108746F7077696E20212C
:105530003D2052545F4E554C4C000000746F707704
:10554000696E2D3E706172656E7420213D2052544B
:105550005F4E554C4C00000070B504460D462DB909
:1055600040F27B320C490DA009F0B8F82CB94FF489
:105570005F7209490EA009F0B1F8E26802F18401F6
:1055800002F1780011F063FDE26802F1780108464B
:105590002A4611F099FB70BD1EE501087265676926
:1055A0006F6E20213D2052545F4E554C4C00000040
:1055B000746F7077696E20213D2052545F4E554CB8
:1055C0004C00000070B505462DB94FF486720849AD
:1055D00008A009F083F8EC6906E0207800F00400E8
:1055E00008B9002070BDE469002CF6D10120F9E76C
:1055F00085E30108746F7077696E20213D20525455
:105600005F4E554C4C0000001FB504462CB94FF4BA
:10561000C872124912A009F061F8206928B940F255
:1056200091120E4913A009F059F800BF0820ADF8F7
:1056300000000020ADF802000DF0F0FE0190002007
:10564000029000BFE068039010226946206912F0C2
:1056500087F9208820F0010020801FBDF2E30108B7
:10566000746F7077696E20213D2052545F4E554C07
:105670004C000000746F7077696E2D3E6170702071
:10568000213D2052545F4E554C4C000070B50446ED
:105690000E46A56A0BE015F8200C00F0040000B9D6
:1056A00009E0A5F120003146FFF7F0FF2D6804F175
:1056B00028008542EFD100BFE068F0601822314633
:1056C000206912F04DF970BD1CB50446207800F039
:1056D000080008B16D2006E0208800F4807008B151
:1056E0004D2000E02020217801F0040109B1532170
:1056F00000E04821CDE900102388E0682146D0F879
:105700009C2002A00AF0D8F91CBD0000307825705A
:105710003A25732C307825782C256325630000000A
:1057200070B504462046FFF7CFFF09A00AF0C4F980
:10573000A56A04E0A5F12000FFF7F2FF2D6804F14F
:1057400028008542F6D103A00AF0B6F970BD00002A
:1057500028000000290000002DE9F04104462CB982
:105760004FF49672134914A008F0B8FFA56A04E03C
:10577000A5F12000FFF7F0FF054604F1280085425F
:10578000F6D1266A08380AF054FA09E0206BA0F135
:105790000807206B0068206338460FF0B9FF00BF90
:1057A000206B0028F2D120460FF0B2FF3046BDE852
:1057B000F0810000BEE30108746F7077696E2021EC
:1057C0003D2052545F4E554C4C00000070B50446CD
:1057D0002CB94FF44E720D490DA008F07FFF2668DA
:1057E00010E0A6F12005287800F0010008B1284655
:1057F00070BD05F12800FFF7E9FF05460DB1284609
:10580000F6E73668A642ECD10020F1E7DCE40108B7
:105810006C69737420213D2052545F4E554C4C00EE
:1058200010B50446E06990B91349206A88420CD04B
:10583000206A10F8200C00F0040030B1216AA1F1B8
:10584000200000F039F8044614E0002010BDD4E92F
:105850000701283081420CD0206A10F8200C00F09B
:10586000040030B1216AA1F1200000F025F80446BF
:1058700000E0E4692046E9E7A802002070B505468B
:1058800025B99622064907A008F028FF2C4600E01B
:10589000E46914B1E0690028FAD1204670BD000027
:1058A00044E30108746F7077696E20213D205254E3
:1058B0005F4E554C4C00000010B5044624B9A022A0
:1058C0000A490BA008F00AFF02E0A06AA0F1200438
:1058D00004F128000AF089F930B9A06A10F8200C08
:1058E00000F004000028F0D1204610BD5FE301085D
:1058F000746F7077696E20213D2052545F4E554C75
:105900004C0000002DE9F04705468946924698462E
:105910002DB94FF45572184918A008F0DFFE2E6813
:1059200024E0A6F12004207800F0040000B91FE074
:1059300043465246494604F12800FFF7E3FF074675
:1059400017B13846BDE8F087B8F1000F04D02078D1
:1059500000F0080000B10BE05246494604F1140083
:1059600010F0A4FE08B92046ECE73668AE42D8D164
:1059700000BF0020E6E70000FEE401086C697374D4
:1059800020213D2052545F4E554C4C000246108859
:1059900000F4C06001F4C063984201D10120704757
:1059A0000020FCE7018821F004010180C168C96979
:1059B00021F00101C268D161704710B5044620781A
:1059C00000F0040000B110BD208840F004002080E9
:1059D000E068007F00F0010010B9E06813F05EFBA2
:1059E00000BFF0E72DE9F04105462DB940F2A112C4
:1059F00039493AA008F072FE2846FFF73FFF0446F7
:105A00002CB940F2A512344939A008F067FE288865
:105A100000F4007088B13C4800682038A84202D1E8
:105A20000020BDE8F08104F120000AF002F904F141
:105A3000200135480AF095F84BE0288800F4806092
:105A400018B30027304806680BE0A6F12007388815
:105A500000F4806018B9387800F0040000B903E061
:105A6000366829488642F0D100BFA6F12000A04246
:105A700001D10020D5E704F120000AF0DAF804F1A2
:105A8000200130460AF082F823E000271E4806680D
:105A90000BE0A6F12007388800F4007018B13878C0
:105AA00000F0040000B903E0366817488642F0D1E0
:105AB00000BFA6F12000A04201D10020B1E704F10F
:105AC00020000AF0B6F804F1200130460AF05EF832
:105AD00000BF0120A5E700000BE40108746F707798
